{"abi":[{"type":"constructor","inputs":[{"name":"name","type":"string","internalType":"string"},{"name":"symbol","type":"string","internalType":"string"}],"stateMutability":"nonpayable"},{"type":"function","name":"approve","inputs":[{"name":"to","type":"address","internalType":"address"},{"name":"tokenId","type":"uint256","internalType":"uint256"}],"outputs":[],"stateMutability":"nonpayable"},{"type":"function","name":"balanceOf","inputs":[{"name":"owner","type":"address","internalType":"address"}],"outputs":[{"name":"","type":"uint256","internalType":"uint256"}],"stateMutability":"view"},{"type":"function","name":"getApproved","inputs":[{"name":"tokenId","type":"uint256","internalType":"uint256"}],"outputs":[{"name":"","type":"address","internalType":"address"}],"stateMutability":"view"},{"type":"function","name":"isApprovedForAll","inputs":[{"name":"owner","type":"address","internalType":"address"},{"name":"operator","type":"address","internalType":"address"}],"outputs":[{"name":"","type":"bool","internalType":"bool"}],"stateMutability":"view"},{"type":"function","name":"mint","inputs":[{"name":"to","type":"address","internalType":"address"}],"outputs":[{"name":"","type":"uint256","internalType":"uint256"}],"stateMutability":"nonpayable"},{"type":"function","name":"mintBatch","inputs":[{"name":"to","type":"address","internalType":"address"},{"name":"count","type":"uint256","internalType":"uint256"}],"outputs":[],"stateMutability":"nonpayable"},{"type":"function","name":"name","inputs":[],"outputs":[{"name":"","type":"string","internalType":"string"}],"stateMutability":"view"},{"type":"function","name":"owner","inputs":[],"outputs":[{"name":"","type":"address","internalType":"address"}],"stateMutability":"view"},{"type":"function","name":"ownerOf","inputs":[{"name":"tokenId","type":"uint256","internalType":"uint256"}],"outputs":[{"name":"","type":"address","internalType":"address"}],"stateMutability":"view"},{"type":"function","name":"renounceOwnership","inputs":[],"outputs":[],"stateMutability":"nonpayable"},{"type":"function","name":"safeTransferFrom","inputs":[{"name":"from","type":"address","internalType":"address"},{"name":"to","type":"address","internalType":"address"},{"name":"tokenId","type":"uint256","internalType":"uint256"}],"outputs":[],"stateMutability":"nonpayable"},{"type":"function","name":"safeTransferFrom","inputs":[{"name":"from","type":"address","internalType":"address"},{"name":"to","type":"address","internalType":"address"},{"name":"tokenId","type":"uint256","internalType":"uint256"},{"name":"data","type":"bytes","internalType":"bytes"}],"outputs":[],"stateMutability":"nonpayable"},{"type":"function","name":"setApprovalForAll","inputs":[{"name":"operator","type":"address","internalType":"address"},{"name":"approved","type":"bool","internalType":"bool"}],"outputs":[],"stateMutability":"nonpayable"},{"type":"function","name":"setBaseURI","inputs":[{"name":"baseURI","type":"string","internalType":"string"}],"outputs":[],"stateMutability":"nonpayable"},{"type":"function","name":"supportsInterface","inputs":[{"name":"interfaceId","type":"bytes4","internalType":"bytes4"}],"outputs":[{"name":"","type":"bool","internalType":"bool"}],"stateMutability":"view"},{"type":"function","name":"symbol","inputs":[],"outputs":[{"name":"","type":"string","internalType":"string"}],"stateMutability":"view"},{"type":"function","name":"tokenURI","inputs":[{"name":"tokenId","type":"uint256","internalType":"uint256"}],"outputs":[{"name":"","type":"string","internalType":"string"}],"stateMutability":"view"},{"type":"function","name":"transferFrom","inputs":[{"name":"from","type":"address","internalType":"address"},{"name":"to","type":"address","internalType":"address"},{"name":"tokenId","type":"uint256","internalType":"uint256"}],"outputs":[],"stateMutability":"nonpayable"},{"type":"function","name":"transferOwnership","inputs":[{"name":"newOwner","type":"address","internalType":"address"}],"outputs":[],"stateMutability":"nonpayable"},{"type":"event","name":"Approval","inputs":[{"name":"owner","type":"address","indexed":true,"internalType":"address"},{"name":"approved","type":"address","indexed":true,"internalType":"address"},{"name":"tokenId","type":"uint256","indexed":true,"internalType":"uint256"}],"anonymous":false},{"type":"event","name":"ApprovalForAll","inputs":[{"name":"owner","type":"address","indexed":true,"internalType":"address"},{"name":"operator","type":"address","indexed":true,"internalType":"address"},{"name":"approved","type":"bool","indexed":false,"internalType":"bool"}],"anonymous":false},{"type":"event","name":"OwnershipTransferred","inputs":[{"name":"previousOwner","type":"address","indexed":true,"internalType":"address"},{"name":"newOwner","type":"address","indexed":true,"internalType":"address"}],"anonymous":false},{"type":"event","name":"Transfer","inputs":[{"name":"from","type":"address","indexed":true,"internalType":"address"},{"name":"to","type":"address","indexed":true,"internalType":"address"},{"name":"tokenId","type":"uint256","indexed":true,"internalType":"uint256"}],"anonymous":false},{"type":"error","name":"ERC721IncorrectOwner","inputs":[{"name":"sender","type":"address","internalType":"address"},{"name":"tokenId","type":"uint256","internalType":"uint256"},{"name":"owner","type":"address","internalType":"address"}]},{"type":"error","name":"ERC721InsufficientApproval","inputs":[{"name":"operator","type":"address","internalType":"address"},{"name":"tokenId","type":"uint256","internalType":"uint256"}]},{"type":"error","name":"ERC721InvalidApprover","inputs":[{"name":"approver","type":"address","internalType":"address"}]},{"type":"error","name":"ERC721InvalidOperator","inputs":[{"name":"operator","type":"address","internalType":"address"}]},{"type":"error","name":"ERC721InvalidOwner","inputs":[{"name":"owner","type":"address","internalType":"address"}]},{"type":"error","name":"ERC721InvalidReceiver","inputs":[{"name":"receiver","type":"address","internalType":"address"}]},{"type":"error","name":"ERC721InvalidSender","inputs":[{"name":"sender","type":"address","internalType":"address"}]},{"type":"error","name":"ERC721NonexistentToken","inputs":[{"name":"tokenId","type":"uint256","internalType":"uint256"}]},{"type":"error","name":"OwnableInvalidOwner","inputs":[{"name":"owner","type":"address","internalType":"address"}]},{"type":"error","name":"OwnableUnauthorizedAccount","inputs":[{"name":"account","type":"address","internalType":"address"}]}],"bytecode":{"object":"0x608060405234801561000f575f5ffd5b50604051612b91380380612b9183398181016040528101906100319190610312565b338282815f90816100429190610598565b5080600190816100529190610598565b5050505f73ffffffffffffffffffffffffffffffffffffffff168173ffffffffffffffffffffffffffffffffffffffff16036100c5575f6040517f1e4fbdf70000000000000000000000000000000000000000000000000000000081526004016100bc91906106a6565b60405180910390fd5b6100d48161010260201b60201c565b50600160078190555060405180602001604052805f815250600890816100fa9190610598565b5050506106bf565b5f60065f9054906101000a900473ffffffffffffffffffffffffffffffffffffffff1690508160065f6101000a81548173ffffffffffffffffffffffffffffffffffffffff021916908373ffffffffffffffffffffffffffffffffffffffff1602179055508173ffffffffffffffffffffffffffffffffffffffff168173ffffffffffffffffffffffffffffffffffffffff167f8be0079c531659141344cd1fd0a4f28419497f9722a3daafe3b4186f6b6457e060405160405180910390a35050565b5f604051905090565b5f5ffd5b5f5ffd5b5f5ffd5b5f5ffd5b5f601f19601f8301169050919050565b7f4e487b71000000000000000000000000000000000000000000000000000000005f52604160045260245ffd5b610224826101de565b810181811067ffffffffffffffff82111715610243576102426101ee565b5b80604052505050565b5f6102556101c5565b9050610261828261021b565b919050565b5f67ffffffffffffffff8211156102805761027f6101ee565b5b610289826101de565b9050602081019050919050565b8281835e5f83830152505050565b5f6102b66102b184610266565b61024c565b9050828152602081018484840111156102d2576102d16101da565b5b6102dd848285610296565b509392505050565b5f82601f8301126102f9576102f86101d6565b5b81516103098482602086016102a4565b91505092915050565b5f5f60408385031215610328576103276101ce565b5b5f83015167ffffffffffffffff811115610345576103446101d2565b5b610351858286016102e5565b925050602083015167ffffffffffffffff811115610372576103716101d2565b5b61037e858286016102e5565b9150509250929050565b5f81519050919050565b7f4e487b71000000000000000000000000000000000000000000000000000000005f52602260045260245ffd5b5f60028204905060018216806103d657607f821691505b6020821081036103e9576103e8610392565b5b50919050565b5f819050815f5260205f209050919050565b5f6020601f8301049050919050565b5f82821b905092915050565b5f6008830261044b7fffffffffffffffffffffffffffffffffffffffffffffffffffffffffffffffff82610410565b6104558683610410565b95508019841693508086168417925050509392505050565b5f819050919050565b5f819050919050565b5f61049961049461048f8461046d565b610476565b61046d565b9050919050565b5f819050919050565b6104b28361047f565b6104c66104be826104a0565b84845461041c565b825550505050565b5f5f905090565b6104dd6104ce565b6104e88184846104a9565b505050565b5b8181101561050b576105005f826104d5565b6001810190506104ee565b5050565b601f82111561055057610521816103ef565b61052a84610401565b81016020851015610539578190505b61054d61054585610401565b8301826104ed565b50505b505050565b5f82821c905092915050565b5f6105705f1984600802610555565b1980831691505092915050565b5f6105888383610561565b9150826002028217905092915050565b6105a182610388565b67ffffffffffffffff8111156105ba576105b96101ee565b5b6105c482546103bf565b6105cf82828561050f565b5f60209050601f831160018114610600575f84156105ee578287015190505b6105f8858261057d565b86555061065f565b601f19841661060e866103ef565b5f5b8281101561063557848901518255600182019150602085019450602081019050610610565b86831015610652578489015161064e601f891682610561565b8355505b6001600288020188555050505b505050505050565b5f73ffffffffffffffffffffffffffffffffffffffff82169050919050565b5f61069082610667565b9050919050565b6106a081610686565b82525050565b5f6020820190506106b95f830184610697565b92915050565b6124c5806106cc5f395ff3fe608060405234801561000f575f5ffd5b506004361061011f575f3560e01c80636a627842116100ab578063a22cb4651161006f578063a22cb46514610303578063b88d4fde1461031f578063c87b56dd1461033b578063e985e9c51461036b578063f2fde38b1461039b5761011f565b80636a6278421461025d57806370a082311461028d578063715018a6146102bd5780638da5cb5b146102c757806395d89b41146102e55761011f565b806323b872dd116100f257806323b872dd146101bd578063248b71fc146101d957806342842e0e146101f557806355f804b3146102115780636352211e1461022d5761011f565b806301ffc9a71461012357806306fdde0314610153578063081812fc14610171578063095ea7b3146101a1575b5f5ffd5b61013d60048036038101906101389190611835565b6103b7565b60405161014a919061187a565b60405180910390f35b61015b610498565b6040516101689190611903565b60405180910390f35b61018b60048036038101906101869190611956565b610527565b60405161019891906119c0565b60405180910390f35b6101bb60048036038101906101b69190611a03565b610542565b005b6101d760048036038101906101d29190611a41565b610558565b005b6101f360048036038101906101ee9190611a03565b610657565b005b61020f600480360381019061020a9190611a41565b61068d565b005b61022b60048036038101906102269190611bbd565b6106ac565b005b61024760048036038101906102429190611956565b6106c7565b60405161025491906119c0565b60405180910390f35b61027760048036038101906102729190611c04565b6106d8565b6040516102849190611c3e565b60405180910390f35b6102a760048036038101906102a29190611c04565b610711565b6040516102b49190611c3e565b60405180910390f35b6102c56107c7565b005b6102cf6107da565b6040516102dc91906119c0565b60405180910390f35b6102ed610802565b6040516102fa9190611903565b60405180910390f35b61031d60048036038101906103189190611c81565b610892565b005b61033960048036038101906103349190611d5d565b6108a8565b005b61035560048036038101906103509190611956565b6108cd565b6040516103629190611903565b60405180910390f35b61038560048036038101906103809190611ddd565b61090b565b604051610392919061187a565b60405180910390f35b6103b560048036038101906103b09190611c04565b610999565b005b5f7f80ac58cd000000000000000000000000000000000000000000000000000000007bffffffffffffffffffffffffffffffffffffffffffffffffffffffff1916827bffffffffffffffffffffffffffffffffffffffffffffffffffffffff1916148061048157507f5b5e139f000000000000000000000000000000000000000000000000000000007bffffffffffffffffffffffffffffffffffffffffffffffffffffffff1916827bffffffffffffffffffffffffffffffffffffffffffffffffffffffff1916145b80610491575061049082610a1d565b5b9050919050565b60605f80546104a690611e48565b80601f01602080910402602001604051908101604052809291908181526020018280546104d290611e48565b801561051d5780601f106104f45761010080835404028352916020019161051d565b820191905f5260205f20905b81548152906001019060200180831161050057829003601f168201915b5050505050905090565b5f61053182610a86565b5061053b82610b0c565b9050919050565b610554828261054f610b45565b610b4c565b5050565b5f73ffffffffffffffffffffffffffffffffffffffff168273ffffffffffffffffffffffffffffffffffffffff16036105c8575f6040517f64a0ae920000000000000000000000000000000000000000000000000000000081526004016105bf91906119c0565b60405180910390fd5b5f6105db83836105d6610b45565b610b5e565b90508373ffffffffffffffffffffffffffffffffffffffff168173ffffffffffffffffffffffffffffffffffffffff1614610651578382826040517f64283d7b00000000000000000000000000000000000000000000000000000000815260040161064893929190611e78565b60405180910390fd5b50505050565b61065f610d69565b5f5f90505b81811161068857610674836106d8565b50808061068090611eda565b915050610664565b505050565b6106a783838360405180602001604052805f8152506108a8565b505050565b6106b4610d69565b80600890816106c391906120c1565b5050565b5f6106d182610a86565b9050919050565b5f6106e1610d69565b5f600754905060075f8154809291906106f990611eda565b91905055506107088382610df0565b80915050919050565b5f5f73ffffffffffffffffffffffffffffffffffffffff168273ffffffffffffffffffffffffffffffffffffffff1603610782575f6040517f89c62b6400000000000000000000000000000000000000000000000000000000815260040161077991906119c0565b60405180910390fd5b60035f8373ffffffffffffffffffffffffffffffffffffffff1673ffffffffffffffffffffffffffffffffffffffff1681526020019081526020015f20549050919050565b6107cf610d69565b6107d85f610e0d565b565b5f60065f9054906101000a900473ffffffffffffffffffffffffffffffffffffffff16905090565b60606001805461081190611e48565b80601f016020809104026020016040519081016040528092919081815260200182805461083d90611e48565b80156108885780601f1061085f57610100808354040283529160200191610888565b820191905f5260205f20905b81548152906001019060200180831161086b57829003601f168201915b5050505050905090565b6108a461089d610b45565b8383610ed0565b5050565b6108b3848484610558565b6108c76108be610b45565b85858585611039565b50505050565b60606108d882610a86565b5060086108e4836111e5565b6040516020016108f592919061224a565b6040516020818303038152906040529050919050565b5f60055f8473ffffffffffffffffffffffffffffffffffffffff1673ffffffffffffffffffffffffffffffffffffffff1681526020019081526020015f205f8373ffffffffffffffffffffffffffffffffffffffff1673ffffffffffffffffffffffffffffffffffffffff1681526020019081526020015f205f9054906101000a900460ff16905092915050565b6109a1610d69565b5f73ffffffffffffffffffffffffffffffffffffffff168173ffffffffffffffffffffffffffffffffffffffff1603610a11575f6040517f1e4fbdf7000000000000000000000000000000000000000000000000000000008152600401610a0891906119c0565b60405180910390fd5b610a1a81610e0d565b50565b5f7f01ffc9a7000000000000000000000000000000000000000000000000000000007bffffffffffffffffffffffffffffffffffffffffffffffffffffffff1916827bffffffffffffffffffffffffffffffffffffffffffffffffffffffff1916149050919050565b5f5f610a918361133e565b90505f73ffffffffffffffffffffffffffffffffffffffff168173ffffffffffffffffffffffffffffffffffffffff1603610b0357826040517f7e273289000000000000000000000000000000000000000000000000000000008152600401610afa9190611c3e565b60405180910390fd5b80915050919050565b5f60045f8381526020019081526020015f205f9054906101000a900473ffffffffffffffffffffffffffffffffffffffff169050919050565b5f33905090565b610b598383836001611377565b505050565b5f5f610b698461133e565b90505f73ffffffffffffffffffffffffffffffffffffffff168373ffffffffffffffffffffffffffffffffffffffff1614610baa57610ba9818486611536565b5b5f73ffffffffffffffffffffffffffffffffffffffff168173ffffffffffffffffffffffffffffffffffffffff1614610c3557610be95f855f5f611377565b600160035f8373ffffffffffffffffffffffffffffffffffffffff1673ffffffffffffffffffffffffffffffffffffffff1681526020019081526020015f205f82825403925050819055505b5f73ffffffffffffffffffffffffffffffffffffffff168573ffffffffffffffffffffffffffffffffffffffff1614610cb457600160035f8773ffffffffffffffffffffffffffffffffffffffff1673ffffffffffffffffffffffffffffffffffffffff1681526020019081526020015f205f82825401925050819055505b8460025f8681526020019081526020015f205f6101000a81548173ffffffffffffffffffffffffffffffffffffffff021916908373ffffffffffffffffffffffffffffffffffffffff160217905550838573ffffffffffffffffffffffffffffffffffffffff168273ffffffffffffffffffffffffffffffffffffffff167fddf252ad1be2c89b69c2b068fc378daa952ba7f163c4a11628f55a4df523b3ef60405160405180910390a4809150509392505050565b610d71610b45565b73ffffffffffffffffffffffffffffffffffffffff16610d8f6107da565b73ffffffffffffffffffffffffffffffffffffffff1614610dee57610db2610b45565b6040517f118cdaa7000000000000000000000000000000000000000000000000000000008152600401610de591906119c0565b60405180910390fd5b565b610e09828260405180602001604052805f8152506115f9565b5050565b5f60065f9054906101000a900473ffffffffffffffffffffffffffffffffffffffff1690508160065f6101000a81548173ffffffffffffffffffffffffffffffffffffffff021916908373ffffffffffffffffffffffffffffffffffffffff1602179055508173ffffffffffffffffffffffffffffffffffffffff168173ffffffffffffffffffffffffffffffffffffffff167f8be0079c531659141344cd1fd0a4f28419497f9722a3daafe3b4186f6b6457e060405160405180910390a35050565b5f73ffffffffffffffffffffffffffffffffffffffff168273ffffffffffffffffffffffffffffffffffffffff1603610f4057816040517f5b08ba18000000000000000000000000000000000000000000000000000000008152600401610f3791906119c0565b60405180910390fd5b8060055f8573ffffffffffffffffffffffffffffffffffffffff1673ffffffffffffffffffffffffffffffffffffffff1681526020019081526020015f205f8473ffffffffffffffffffffffffffffffffffffffff1673ffffffffffffffffffffffffffffffffffffffff1681526020019081526020015f205f6101000a81548160ff0219169083151502179055508173ffffffffffffffffffffffffffffffffffffffff168373ffffffffffffffffffffffffffffffffffffffff167f17307eab39ab6107e8899845ad3d59bd9653f200f220920489ca2b5937696c318360405161102c919061187a565b60405180910390a3505050565b5f8373ffffffffffffffffffffffffffffffffffffffff163b11156111de578273ffffffffffffffffffffffffffffffffffffffff1663150b7a02868685856040518563ffffffff1660e01b815260040161109794939291906122bf565b6020604051808303815f875af19250505080156110d257506040513d601f19601f820116820180604052508101906110cf919061231d565b60015b611153573d805f8114611100576040519150601f19603f3d011682016040523d82523d5f602084013e611105565b606091505b505f81510361114b57836040517f64a0ae9200000000000000000000000000000000000000000000000000000000815260040161114291906119c0565b60405180910390fd5b805160208201fd5b63150b7a0260e01b7bffffffffffffffffffffffffffffffffffffffffffffffffffffffff1916817bffffffffffffffffffffffffffffffffffffffffffffffffffffffff1916146111dc57836040517f64a0ae920000000000000000000000000000000000000000000000000000000081526004016111d391906119c0565b60405180910390fd5b505b5050505050565b60605f820361122b576040518060400160405280600181526020017f30000000000000000000000000000000000000000000000000000000000000008152509050611339565b5f8290505f5b5f821461125a57808061124390611eda565b915050600a826112539190612375565b9150611231565b5f8167ffffffffffffffff81111561127557611274611a99565b5b6040519080825280601f01601f1916602001820160405280156112a75781602001600182028036833780820191505090505b5090505b5f8514611332576001826112bf91906123a5565b9150600a856112ce91906123d8565b60306112da9190612408565b60f81b8183815181106112f0576112ef61243b565b5b60200101907effffffffffffffffffffffffffffffffffffffffffffffffffffffffffffff191690815f1a905350600a8561132b9190612375565b94506112ab565b8093505050505b919050565b5f60025f8381526020019081526020015f205f9054906101000a900473ffffffffffffffffffffffffffffffffffffffff169050919050565b80806113af57505f73ffffffffffffffffffffffffffffffffffffffff168273ffffffffffffffffffffffffffffffffffffffff1614155b156114e1575f6113be84610a86565b90505f73ffffffffffffffffffffffffffffffffffffffff168373ffffffffffffffffffffffffffffffffffffffff161415801561142857508273ffffffffffffffffffffffffffffffffffffffff168173ffffffffffffffffffffffffffffffffffffffff1614155b801561143b5750611439818461090b565b155b1561147d57826040517fa9fbf51f00000000000000000000000000000000000000000000000000000000815260040161147491906119c0565b60405180910390fd5b81156114df57838573ffffffffffffffffffffffffffffffffffffffff168273ffffffffffffffffffffffffffffffffffffffff167f8c5be1e5ebec7d5bd14f71427d1e84f3dd0314c0f7b2291e5b200ac8c7c3b92560405160405180910390a45b505b8360045f8581526020019081526020015f205f6101000a81548173ffffffffffffffffffffffffffffffffffffffff021916908373ffffffffffffffffffffffffffffffffffffffff16021790555050505050565b61154183838361161c565b6115f4575f73ffffffffffffffffffffffffffffffffffffffff168373ffffffffffffffffffffffffffffffffffffffff16036115b557806040517f7e2732890000000000000000000000000000000000000000000000000000000081526004016115ac9190611c3e565b60405180910390fd5b81816040517f177e802f0000000000000000000000000000000000000000000000000000000081526004016115eb929190612468565b60405180910390fd5b505050565b61160383836116dc565b61161761160e610b45565b5f858585611039565b505050565b5f5f73ffffffffffffffffffffffffffffffffffffffff168373ffffffffffffffffffffffffffffffffffffffff16141580156116d357508273ffffffffffffffffffffffffffffffffffffffff168473ffffffffffffffffffffffffffffffffffffffff1614806116945750611693848461090b565b5b806116d257508273ffffffffffffffffffffffffffffffffffffffff166116ba83610b0c565b73ffffffffffffffffffffffffffffffffffffffff16145b5b90509392505050565b5f73ffffffffffffffffffffffffffffffffffffffff168273ffffffffffffffffffffffffffffffffffffffff160361174c575f6040517f64a0ae9200000000000000000000000000000000000000000000000000000000815260040161174391906119c0565b60405180910390fd5b5f61175883835f610b5e565b90505f73ffffffffffffffffffffffffffffffffffffffff168173ffffffffffffffffffffffffffffffffffffffff16146117ca575f6040517f73c6ac6e0000000000000000000000000000000000000000000000000000000081526004016117c191906119c0565b60405180910390fd5b505050565b5f604051905090565b5f5ffd5b5f5ffd5b5f7fffffffff0000000000000000000000000000000000000000000000000000000082169050919050565b611814816117e0565b811461181e575f5ffd5b50565b5f8135905061182f8161180b565b92915050565b5f6020828403121561184a576118496117d8565b5b5f61185784828501611821565b91505092915050565b5f8115159050919050565b61187481611860565b82525050565b5f60208201905061188d5f83018461186b565b92915050565b5f81519050919050565b5f82825260208201905092915050565b8281835e5f83830152505050565b5f601f19601f8301169050919050565b5f6118d582611893565b6118df818561189d565b93506118ef8185602086016118ad565b6118f8816118bb565b840191505092915050565b5f6020820190508181035f83015261191b81846118cb565b905092915050565b5f819050919050565b61193581611923565b811461193f575f5ffd5b50565b5f813590506119508161192c565b92915050565b5f6020828403121561196b5761196a6117d8565b5b5f61197884828501611942565b91505092915050565b5f73ffffffffffffffffffffffffffffffffffffffff82169050919050565b5f6119aa82611981565b9050919050565b6119ba816119a0565b82525050565b5f6020820190506119d35f8301846119b1565b92915050565b6119e2816119a0565b81146119ec575f5ffd5b50565b5f813590506119fd816119d9565b92915050565b5f5f60408385031215611a1957611a186117d8565b5b5f611a26858286016119ef565b9250506020611a3785828601611942565b9150509250929050565b5f5f5f60608486031215611a5857611a576117d8565b5b5f611a65868287016119ef565b9350506020611a76868287016119ef565b9250506040611a8786828701611942565b9150509250925092565b5f5ffd5b5f5ffd5b7f4e487b71000000000000000000000000000000000000000000000000000000005f52604160045260245ffd5b611acf826118bb565b810181811067ffffffffffffffff82111715611aee57611aed611a99565b5b80604052505050565b5f611b006117cf565b9050611b0c8282611ac6565b919050565b5f67ffffffffffffffff821115611b2b57611b2a611a99565b5b611b34826118bb565b9050602081019050919050565b828183375f83830152505050565b5f611b61611b5c84611b11565b611af7565b905082815260208101848484011115611b7d57611b7c611a95565b5b611b88848285611b41565b509392505050565b5f82601f830112611ba457611ba3611a91565b5b8135611bb4848260208601611b4f565b91505092915050565b5f60208284031215611bd257611bd16117d8565b5b5f82013567ffffffffffffffff811115611bef57611bee6117dc565b5b611bfb84828501611b90565b91505092915050565b5f60208284031215611c1957611c186117d8565b5b5f611c26848285016119ef565b91505092915050565b611c3881611923565b82525050565b5f602082019050611c515f830184611c2f565b92915050565b611c6081611860565b8114611c6a575f5ffd5b50565b5f81359050611c7b81611c57565b92915050565b5f5f60408385031215611c9757611c966117d8565b5b5f611ca4858286016119ef565b9250506020611cb585828601611c6d565b9150509250929050565b5f67ffffffffffffffff821115611cd957611cd8611a99565b5b611ce2826118bb565b9050602081019050919050565b5f611d01611cfc84611cbf565b611af7565b905082815260208101848484011115611d1d57611d1c611a95565b5b611d28848285611b41565b509392505050565b5f82601f830112611d4457611d43611a91565b5b8135611d54848260208601611cef565b91505092915050565b5f5f5f5f60808587031215611d7557611d746117d8565b5b5f611d82878288016119ef565b9450506020611d93878288016119ef565b9350506040611da487828801611942565b925050606085013567ffffffffffffffff811115611dc557611dc46117dc565b5b611dd187828801611d30565b91505092959194509250565b5f5f60408385031215611df357611df26117d8565b5b5f611e00858286016119ef565b9250506020611e11858286016119ef565b9150509250929050565b7f4e487b71000000000000000000000000000000000000000000000000000000005f52602260045260245ffd5b5f6002820490506001821680611e5f57607f821691505b602082108103611e7257611e71611e1b565b5b50919050565b5f606082019050611e8b5f8301866119b1565b611e986020830185611c2f565b611ea560408301846119b1565b949350505050565b7f4e487b71000000000000000000000000000000000000000000000000000000005f52601160045260245ffd5b5f611ee482611923565b91507fffffffffffffffffffffffffffffffffffffffffffffffffffffffffffffffff8203611f1657611f15611ead565b5b600182019050919050565b5f819050815f5260205f209050919050565b5f6020601f8301049050919050565b5f82821b905092915050565b5f60088302611f7d7fffffffffffffffffffffffffffffffffffffffffffffffffffffffffffffffff82611f42565b611f878683611f42565b95508019841693508086168417925050509392505050565b5f819050919050565b5f611fc2611fbd611fb884611923565b611f9f565b611923565b9050919050565b5f819050919050565b611fdb83611fa8565b611fef611fe782611fc9565b848454611f4e565b825550505050565b5f5f905090565b612006611ff7565b612011818484611fd2565b505050565b5b81811015612034576120295f82611ffe565b600181019050612017565b5050565b601f8211156120795761204a81611f21565b61205384611f33565b81016020851015612062578190505b61207661206e85611f33565b830182612016565b50505b505050565b5f82821c905092915050565b5f6120995f198460080261207e565b1980831691505092915050565b5f6120b1838361208a565b9150826002028217905092915050565b6120ca82611893565b67ffffffffffffffff8111156120e3576120e2611a99565b5b6120ed8254611e48565b6120f8828285612038565b5f60209050601f831160018114612129575f8415612117578287015190505b61212185826120a6565b865550612188565b601f19841661213786611f21565b5f5b8281101561215e57848901518255600182019150602085019450602081019050612139565b8683101561217b5784890151612177601f89168261208a565b8355505b6001600288020188555050505b505050505050565b5f81905092915050565b5f81546121a681611e48565b6121b08186612190565b9450600182165f81146121ca57600181146121df57612211565b60ff1983168652811515820286019350612211565b6121e885611f21565b5f5b83811015612209578154818901526001820191506020810190506121ea565b838801955050505b50505092915050565b5f61222482611893565b61222e8185612190565b935061223e8185602086016118ad565b80840191505092915050565b5f612255828561219a565b9150612261828461221a565b91508190509392505050565b5f81519050919050565b5f82825260208201905092915050565b5f6122918261226d565b61229b8185612277565b93506122ab8185602086016118ad565b6122b4816118bb565b840191505092915050565b5f6080820190506122d25f8301876119b1565b6122df60208301866119b1565b6122ec6040830185611c2f565b81810360608301526122fe8184612287565b905095945050505050565b5f815190506123178161180b565b92915050565b5f60208284031215612332576123316117d8565b5b5f61233f84828501612309565b91505092915050565b7f4e487b71000000000000000000000000000000000000000000000000000000005f52601260045260245ffd5b5f61237f82611923565b915061238a83611923565b92508261239a57612399612348565b5b828204905092915050565b5f6123af82611923565b91506123ba83611923565b92508282039050818111156123d2576123d1611ead565b5b92915050565b5f6123e282611923565b91506123ed83611923565b9250826123fd576123fc612348565b5b828206905092915050565b5f61241282611923565b915061241d83611923565b925082820190508082111561243557612434611ead565b5b92915050565b7f4e487b71000000000000000000000000000000000000000000000000000000005f52603260045260245ffd5b5f60408201905061247b5f8301856119b1565b6124886020830184611c2f565b939250505056fea2646970667358221220690e4862334b13513265632b760e2d714fc52ecd5a9b2b5f5c8a14cc8cd361c464736f6c634300081c0033","linkReferences":{}},"methodIdentifiers":{"approve(address,uint256)":"095ea7b3","balanceOf(address)":"70a08231","getApproved(uint256)":"081812fc","isApprovedForAll(address,address)":"e985e9c5","mint(address)":"6a627842","mintBatch(address,uint256)":"248b71fc","name()":"06fdde03","owner()":"8da5cb5b","ownerOf(uint256)":"6352211e","renounceOwnership()":"715018a6","safeTransferFrom(address,address,uint256)":"42842e0e","safeTransferFrom(address,address,uint256,bytes)":"b88d4fde","setApprovalForAll(address,bool)":"a22cb465","setBaseURI(string)":"55f804b3","supportsInterface(bytes4)":"01ffc9a7","symbol()":"95d89b41","tokenURI(uint256)":"c87b56dd","transferFrom(address,address,uint256)":"23b872dd","transferOwnership(address)":"f2fde38b"},"id":0}