{"abi":[{"type":"constructor","inputs":[],"stateMutability":"nonpayable"},{"type":"receive","stateMutability":"payable"},{"type":"function","name":"buy","inputs":[{"name":"_payToken","type":"address","internalType":"address"},{"name":"_amount","type":"uint256","internalType":"uint256"}],"outputs":[],"stateMutability":"payable"},{"type":"function","name":"endAuction","inputs":[],"outputs":[],"stateMutability":"nonpayable"},{"type":"function","name":"ethToUSD","inputs":[{"name":"ethAmount","type":"uint256","internalType":"uint256"}],"outputs":[{"name":"","type":"uint256","internalType":"uint256"}],"stateMutability":"view"},{"type":"function","name":"getAuction","inputs":[{"name":"auctionId","type":"uint256","internalType":"uint256"}],"outputs":[{"name":"seller","type":"address","internalType":"address"},{"name":"nftAddress","type":"address","internalType":"address"},{"name":"tokenId","type":"uint256","internalType":"uint256"},{"name":"currentPrice","type":"uint256","internalType":"uint256"},{"name":"currentPriceUSD","type":"uint256","internalType":"uint256"},{"name":"startTime","type":"uint256","internalType":"uint256"},{"name":"endTime","type":"uint256","internalType":"uint256"},{"name":"highestBidder","type":"address","internalType":"address"},{"name":"ended","type":"bool","internalType":"bool"}],"stateMutability":"view"},{"type":"function","name":"getETHPrice","inputs":[],"outputs":[{"name":"","type":"int256","internalType":"int256"}],"stateMutability":"view"},{"type":"function","name":"getVersion","inputs":[],"outputs":[{"name":"","type":"string","internalType":"string"}],"stateMutability":"pure"},{"type":"function","name":"initialize","inputs":[],"outputs":[],"stateMutability":"nonpayable"},{"type":"function","name":"onERC721Received","inputs":[{"name":"operator","type":"address","internalType":"address"},{"name":"from","type":"address","internalType":"address"},{"name":"tokenId","type":"uint256","internalType":"uint256"},{"name":"data","type":"bytes","internalType":"bytes"}],"outputs":[{"name":"","type":"bytes4","internalType":"bytes4"}],"stateMutability":"pure"},{"type":"function","name":"owner","inputs":[],"outputs":[{"name":"","type":"address","internalType":"address"}],"stateMutability":"view"},{"type":"function","name":"proxiableUUID","inputs":[],"outputs":[{"name":"","type":"bytes32","internalType":"bytes32"}],"stateMutability":"view"},{"type":"function","name":"renounceOwnership","inputs":[],"outputs":[],"stateMutability":"nonpayable"},{"type":"function","name":"setPriceFeed","inputs":[{"name":"_priceFeed","type":"address","internalType":"address"}],"outputs":[],"stateMutability":"nonpayable"},{"type":"function","name":"start","inputs":[{"name":"_seller","type":"address","internalType":"address"},{"name":"_nftContract","type":"address","internalType":"address"},{"name":"_tokenId","type":"uint256","internalType":"uint256"},{"name":"_startPrice","type":"uint256","internalType":"uint256"},{"name":"_duration","type":"uint256","internalType":"uint256"},{"name":"_payToken","type":"address","internalType":"address"},{"name":"_auctionId","type":"uint256","internalType":"uint256"}],"outputs":[],"stateMutability":"nonpayable"},{"type":"function","name":"transferOwnership","inputs":[{"name":"newOwner","type":"address","internalType":"address"}],"outputs":[],"stateMutability":"nonpayable"},{"type":"function","name":"upgradeTo","inputs":[{"name":"newImplementation","type":"address","internalType":"address"}],"outputs":[],"stateMutability":"nonpayable"},{"type":"function","name":"upgradeToAndCall","inputs":[{"name":"newImplementation","type":"address","internalType":"address"},{"name":"data","type":"bytes","internalType":"bytes"}],"outputs":[],"stateMutability":"payable"},{"type":"event","name":"AdminChanged","inputs":[{"name":"previousAdmin","type":"address","indexed":false,"internalType":"address"},{"name":"newAdmin","type":"address","indexed":false,"internalType":"address"}],"anonymous":false},{"type":"event","name":"AuctionCreated","inputs":[{"name":"seller","type":"address","indexed":true,"internalType":"address"},{"name":"nftContract","type":"address","indexed":true,"internalType":"address"},{"name":"startTime","type":"uint256","indexed":false,"internalType":"uint256"},{"name":"duration","type":"uint256","indexed":false,"internalType":"uint256"},{"name":"startPrice","type":"uint256","indexed":false,"internalType":"uint256"},{"name":"tokenId","type":"uint256","indexed":false,"internalType":"uint256"},{"name":"payToken","type":"address","indexed":false,"internalType":"address"},{"name":"auctionId","type":"uint256","indexed":false,"internalType":"uint256"}],"anonymous":false},{"type":"event","name":"AuctionEnded","inputs":[{"name":"winner","type":"address","indexed":true,"internalType":"address"},{"name":"nftContract","type":"address","indexed":true,"internalType":"address"},{"name":"tokenId","type":"uint256","indexed":false,"internalType":"uint256"},{"name":"amount","type":"uint256","indexed":false,"internalType":"uint256"},{"name":"payToken","type":"address","indexed":false,"internalType":"address"}],"anonymous":false},{"type":"event","name":"BeaconUpgraded","inputs":[{"name":"beacon","type":"address","indexed":true,"internalType":"address"}],"anonymous":false},{"type":"event","name":"BidPlaced","inputs":[{"name":"bidder","type":"address","indexed":true,"internalType":"address"},{"name":"nftContract","type":"address","indexed":true,"internalType":"address"},{"name":"tokenId","type":"uint256","indexed":false,"internalType":"uint256"},{"name":"bid","type":"uint256","indexed":false,"internalType":"uint256"},{"name":"payToken","type":"address","indexed":false,"internalType":"address"}],"anonymous":false},{"type":"event","name":"Initialized","inputs":[{"name":"version","type":"uint8","indexed":false,"internalType":"uint8"}],"anonymous":false},{"type":"event","name":"OwnershipTransferred","inputs":[{"name":"previousOwner","type":"address","indexed":true,"internalType":"address"},{"name":"newOwner","type":"address","indexed":true,"internalType":"address"}],"anonymous":false},{"type":"event","name":"Upgraded","inputs":[{"name":"implementation","type":"address","indexed":true,"internalType":"address"}],"anonymous":false}],"bytecode":{"object":"0x60a06040523073ffffffffffffffffffffffffffffffffffffffff1660809073ffffffffffffffffffffffffffffffffffffffff16815250348015610042575f5ffd5b506080516146506100775f395f8181610446015281816104d4015281816105cc0152818161065a015261070901526146505ff3fe6080604052600436106100f6575f3560e01c806378bd793511610089578063cce7ec1311610058578063cce7ec13146102fd578063ccf918a114610319578063f2fde38b14610341578063fe67a54b14610369576100fd565b806378bd79351461024f5780638129fc1c146102935780638da5cb5b146102a9578063a607a8d9146102d3576100fd565b80634f1ef286116100c55780634f1ef286146101cb57806352d1902d146101e7578063715018a614610211578063724e78da14610227576100fd565b80630d8e6e2c14610101578063150b7a021461012b578063196e609d146101675780633659cfe6146101a3576100fd565b366100fd57005b5f5ffd5b34801561010c575f5ffd5b5061011561037f565b6040516101229190612a48565b60405180910390f35b348015610136575f5ffd5b50610151600480360381019061014c9190612b67565b6103bc565b60405161015e9190612c25565b60405180910390f35b348015610172575f5ffd5b5061018d60048036038101906101889190612c3e565b6103d0565b60405161019a9190612c78565b60405180910390f35b3480156101ae575f5ffd5b506101c960048036038101906101c49190612c91565b610444565b005b6101e560048036038101906101e09190612de4565b6105ca565b005b3480156101f2575f5ffd5b506101fb610706565b6040516102089190612e56565b60405180910390f35b34801561021c575f5ffd5b506102256107bd565b005b348015610232575f5ffd5b5061024d60048036038101906102489190612c91565b6107d0565b005b34801561025a575f5ffd5b5061027560048036038101906102709190612c3e565b61081c565b60405161028a99989796959493929190612e98565b60405180910390f35b34801561029e575f5ffd5b506102a76108e3565b005b3480156102b4575f5ffd5b506102bd610a2d565b6040516102ca9190612f23565b60405180910390f35b3480156102de575f5ffd5b506102e7610a55565b6040516102f49190612f54565b60405180910390f35b61031760048036038101906103129190612f6d565b610af3565b005b348015610324575f5ffd5b5061033f600480360381019061033a9190612fab565b611169565b005b34801561034c575f5ffd5b5061036760048036038101906103629190612c91565b6116f7565b005b348015610374575f5ffd5b5061037d611779565b005b60606040518060400160405280600e81526020017f4d794e465441756374696f6e5631000000000000000000000000000000000000815250905090565b5f63150b7a0260e01b905095945050505050565b5f5f6103da610a55565b90505f811361041e576040517f08c379a000000000000000000000000000000000000000000000000000000000815260040161041590613092565b60405180910390fd5b662386f26fc10000838261043291906130dd565b61043c919061314b565b915050919050565b7f000000000000000000000000000000000000000000000000000000000000000073ffffffffffffffffffffffffffffffffffffffff163073ffffffffffffffffffffffffffffffffffffffff16036104d2576040517f08c379a00000000000000000000000000000000000000000000000000000000081526004016104c9906131eb565b60405180910390fd5b7f000000000000000000000000000000000000000000000000000000000000000073ffffffffffffffffffffffffffffffffffffffff16610511611ace565b73ffffffffffffffffffffffffffffffffffffffff1614610567576040517f08c379a000000000000000000000000000000000000000000000000000000000815260040161055e90613279565b60405180910390fd5b61057081611b21565b6105c7815f67ffffffffffffffff81111561058e5761058d612cc0565b5b6040519080825280601f01601f1916602001820160405280156105c05781602001600182028036833780820191505090505b505f611b2c565b50565b7f000000000000000000000000000000000000000000000000000000000000000073ffffffffffffffffffffffffffffffffffffffff163073ffffffffffffffffffffffffffffffffffffffff1603610658576040517f08c379a000000000000000000000000000000000000000000000000000000000815260040161064f906131eb565b60405180910390fd5b7f000000000000000000000000000000000000000000000000000000000000000073ffffffffffffffffffffffffffffffffffffffff16610697611ace565b73ffffffffffffffffffffffffffffffffffffffff16146106ed576040517f08c379a00000000000000000000000000000000000000000000000000000000081526004016106e490613279565b60405180910390fd5b6106f682611b21565b61070282826001611b2c565b5050565b5f7f000000000000000000000000000000000000000000000000000000000000000073ffffffffffffffffffffffffffffffffffffffff163073ffffffffffffffffffffffffffffffffffffffff1614610795576040517f08c379a000000000000000000000000000000000000000000000000000000000815260040161078c90613307565b60405180910390fd5b7f360894a13ba1a3210667c828492db98dca3e2076cc3735a920a3ca505d382bbc5f1b905090565b6107c5611c96565b6107ce5f611d14565b565b6107d8611c96565b806101055f6101000a81548173ffffffffffffffffffffffffffffffffffffffff021916908373ffffffffffffffffffffffffffffffffffffffff16021790555050565b5f5f5f5f5f5f5f5f5f60fb5f015f9054906101000a900473ffffffffffffffffffffffffffffffffffffffff16985060fb6001015f9054906101000a900473ffffffffffffffffffffffffffffffffffffffff16975060fb60020154965060fb60040154935060fb6005015460fb600401546108989190613325565b925060fb6006015f9054906101000a900473ffffffffffffffffffffffffffffffffffffffff16915060fb60080160149054906101000a900460ff1690509193959799909294969850565b5f5f60019054906101000a900460ff16159050808015610913575060015f5f9054906101000a900460ff1660ff16105b80610940575061092230611dd7565b15801561093f575060015f5f9054906101000a900460ff1660ff16145b5b61097f576040517f08c379a0000000000000000000000000000000000000000000000000000000008152600401610976906133c8565b60405180910390fd5b60015f5f6101000a81548160ff021916908360ff16021790555080156109ba5760015f60016101000a81548160ff0219169083151502179055505b6109c2611df9565b6109ca611e51565b6109d2611ea1565b8015610a2a575f5f60016101000a81548160ff0219169083151502179055507f7f26b83ff96e1f2b6a682f133852f6798a09c465da95921460cefb38474024986001604051610a219190613434565b60405180910390a15b50565b5f60335f9054906101000a900473ffffffffffffffffffffffffffffffffffffffff16905090565b5f5f6101055f9054906101000a900473ffffffffffffffffffffffffffffffffffffffff1673ffffffffffffffffffffffffffffffffffffffff1663feaf968c6040518163ffffffff1660e01b815260040160a060405180830381865afa158015610ac2573d5f5f3e3d5ffd5b505050506040513d601f19601f82011682018060405250810190610ae691906134ca565b5050509150508091505090565b60fb5f015f9054906101000a900473ffffffffffffffffffffffffffffffffffffffff1673ffffffffffffffffffffffffffffffffffffffff163373ffffffffffffffffffffffffffffffffffffffff1603610b84576040517f08c379a0000000000000000000000000000000000000000000000000000000008152600401610b7b9061358b565b60405180910390fd5b5f60fb6004015411610bcb576040517f08c379a0000000000000000000000000000000000000000000000000000000008152600401610bc2906135f3565b60405180910390fd5b60fb60080160149054906101000a900460ff1615610c1e576040517f08c379a0000000000000000000000000000000000000000000000000000000008152600401610c159061365b565b60405180910390fd5b60fb6005015460fb60040154610c349190613325565b4210610c75576040517f08c379a0000000000000000000000000000000000000000000000000000000008152600401610c6c9061365b565b60405180910390fd5b5f73ffffffffffffffffffffffffffffffffffffffff168273ffffffffffffffffffffffffffffffffffffffff1603610cef57803414610cea576040517f08c379a0000000000000000000000000000000000000000000000000000000008152600401610ce1906136c3565b60405180910390fd5b610dee565b5f3414610d31576040517f08c379a0000000000000000000000000000000000000000000000000000000008152600401610d289061372b565b60405180910390fd5b808273ffffffffffffffffffffffffffffffffffffffff1663dd62ed3e33306040518363ffffffff1660e01b8152600401610d6d929190613749565b602060405180830381865afa158015610d88573d5f5f3e3d5ffd5b505050506040513d601f19601f82011682018060405250810190610dac9190613770565b1015610ded576040517f08c379a0000000000000000000000000000000000000000000000000000000008152600401610de4906137e5565b60405180910390fd5b5b5f8111610e30576040517f08c379a0000000000000000000000000000000000000000000000000000000008152600401610e279061384d565b60405180910390fd5b5f610e39611ef9565b90505f610e468484612222565b9050818111610e8a576040517f08c379a0000000000000000000000000000000000000000000000000000000008152600401610e81906138b5565b60405180910390fd5b5f73ffffffffffffffffffffffffffffffffffffffff168473ffffffffffffffffffffffffffffffffffffffff1614610f7f575f8473ffffffffffffffffffffffffffffffffffffffff166323b872dd3330876040518463ffffffff1660e01b8152600401610efb939291906138d3565b6020604051808303815f875af1158015610f17573d5f5f3e3d5ffd5b505050506040513d601f19601f82011682018060405250810190610f3b9190613932565b905080610f7d576040517f08c379a0000000000000000000000000000000000000000000000000000000008152600401610f74906139a7565b60405180910390fd5b505b5f73ffffffffffffffffffffffffffffffffffffffff1660fb6006015f9054906101000a900473ffffffffffffffffffffffffffffffffffffffff1673ffffffffffffffffffffffffffffffffffffffff1614158015610fe357505f60fb60070154115b156110415761104060fb6006015f9054906101000a900473ffffffffffffffffffffffffffffffffffffffff1660fb6008015f9054906101000a900473ffffffffffffffffffffffffffffffffffffffff1660fb600701546124bf565b5b3360fb6006015f6101000a81548173ffffffffffffffffffffffffffffffffffffffff021916908373ffffffffffffffffffffffffffffffffffffffff1602179055508260fb600701819055508360fb6008015f6101000a81548173ffffffffffffffffffffffffffffffffffffffff021916908373ffffffffffffffffffffffffffffffffffffffff16021790555060fb6001015f9054906101000a900473ffffffffffffffffffffffffffffffffffffffff1673ffffffffffffffffffffffffffffffffffffffff163373ffffffffffffffffffffffffffffffffffffffff167f033662337362bded9d8e20233729c8d9b0cd2e517eb37f12eafa103a5ac212bf60fb60020154868860405161115b939291906139c5565b60405180910390a350505050565b5f73ffffffffffffffffffffffffffffffffffffffff168773ffffffffffffffffffffffffffffffffffffffff16036111d7576040517f08c379a00000000000000000000000000000000000000000000000000000000081526004016111ce90613a44565b60405180910390fd5b5f73ffffffffffffffffffffffffffffffffffffffff168673ffffffffffffffffffffffffffffffffffffffff1603611245576040517f08c379a000000000000000000000000000000000000000000000000000000000815260040161123c90613ad2565b60405180910390fd5b5f8311611287576040517f08c379a000000000000000000000000000000000000000000000000000000000815260040161127e90613b3a565b60405180910390fd5b5f84116112c9576040517f08c379a00000000000000000000000000000000000000000000000000000000081526004016112c090613bc8565b60405180910390fd5b5f851161130b576040517f08c379a000000000000000000000000000000000000000000000000000000000815260040161130290613c30565b60405180910390fd5b5f8690508773ffffffffffffffffffffffffffffffffffffffff168173ffffffffffffffffffffffffffffffffffffffff16636352211e886040518263ffffffff1660e01b815260040161135f9190612c78565b602060405180830381865afa15801561137a573d5f5f3e3d5ffd5b505050506040513d601f19601f8201168201806040525081019061139e9190613c62565b73ffffffffffffffffffffffffffffffffffffffff16146113f4576040517f08c379a00000000000000000000000000000000000000000000000000000000081526004016113eb90613cfd565b60405180910390fd5b8073ffffffffffffffffffffffffffffffffffffffff166323b872dd3330896040518463ffffffff1660e01b8152600401611431939291906138d3565b5f604051808303815f87803b158015611448575f5ffd5b505af115801561145a573d5f5f3e3d5ffd5b505050506040518061016001604052803373ffffffffffffffffffffffffffffffffffffffff1681526020018873ffffffffffffffffffffffffffffffffffffffff1681526020018781526020018681526020014281526020018581526020015f73ffffffffffffffffffffffffffffffffffffffff1681526020015f81526020018473ffffffffffffffffffffffffffffffffffffffff1681526020015f151581526020018381525060fb5f820151815f015f6101000a81548173ffffffffffffffffffffffffffffffffffffffff021916908373ffffffffffffffffffffffffffffffffffffffff1602179055506020820151816001015f6101000a81548173ffffffffffffffffffffffffffffffffffffffff021916908373ffffffffffffffffffffffffffffffffffffffff16021790555060408201518160020155606082015181600301556080820151816004015560a0820151816005015560c0820151816006015f6101000a81548173ffffffffffffffffffffffffffffffffffffffff021916908373ffffffffffffffffffffffffffffffffffffffff16021790555060e08201518160070155610100820151816008015f6101000a81548173ffffffffffffffffffffffffffffffffffffffff021916908373ffffffffffffffffffffffffffffffffffffffff1602179055506101208201518160080160146101000a81548160ff02191690831515021790555061014082015181600901559050508673ffffffffffffffffffffffffffffffffffffffff168873ffffffffffffffffffffffffffffffffffffffff167f6093e8428d5d59dbc860cbe199c1c1260dd1fb16a52a9cb20da8966a5ed1cbf14287898b89896040516116e596959493929190613d1b565b60405180910390a35050505050505050565b6116ff611c96565b5f73ffffffffffffffffffffffffffffffffffffffff168173ffffffffffffffffffffffffffffffffffffffff160361176d576040517f08c379a000000000000000000000000000000000000000000000000000000000815260040161176490613dea565b60405180910390fd5b61177681611d14565b50565b60fb60080160149054906101000a900460ff16156117cc576040517f08c379a00000000000000000000000000000000000000000000000000000000081526004016117c39061365b565b60405180910390fd5b60fb6005015460fb600401546117e29190613325565b421015611824576040517f08c379a000000000000000000000000000000000000000000000000000000000815260040161181b90613e52565b60405180910390fd5b600160fb60080160146101000a81548160ff0219169083151502179055505f60fb6001015f9054906101000a900473ffffffffffffffffffffffffffffffffffffffff1690505f73ffffffffffffffffffffffffffffffffffffffff1660fb6006015f9054906101000a900473ffffffffffffffffffffffffffffffffffffffff1673ffffffffffffffffffffffffffffffffffffffff1614611959578073ffffffffffffffffffffffffffffffffffffffff166342842e0e3060fb6006015f9054906101000a900473ffffffffffffffffffffffffffffffffffffffff1660fb600201546040518463ffffffff1660e01b8152600401611927939291906138d3565b5f604051808303815f87803b15801561193e575f5ffd5b505af1158015611950573d5f5f3e3d5ffd5b505050506119ec565b8073ffffffffffffffffffffffffffffffffffffffff166342842e0e3060fb5f015f9054906101000a900473ffffffffffffffffffffffffffffffffffffffff1660fb600201546040518463ffffffff1660e01b81526004016119be939291906138d3565b5f604051808303815f87803b1580156119d5575f5ffd5b505af11580156119e7573d5f5f3e3d5ffd5b505050505b60fb6001015f9054906101000a900473ffffffffffffffffffffffffffffffffffffffff1673ffffffffffffffffffffffffffffffffffffffff1660fb6006015f9054906101000a900473ffffffffffffffffffffffffffffffffffffffff1673ffffffffffffffffffffffffffffffffffffffff167f0ff828a9486263d5c2502e38708aa01df29294e445c52c3e44ed6a827556f90760fb6002015460fb6007015460fb6008015f9054906101000a900473ffffffffffffffffffffffffffffffffffffffff16604051611ac3939291906139c5565b60405180910390a350565b5f611afa7f360894a13ba1a3210667c828492db98dca3e2076cc3735a920a3ca505d382bbc5f1b612665565b5f015f9054906101000a900473ffffffffffffffffffffffffffffffffffffffff16905090565b611b29611c96565b50565b611b577f4910fdfa16fed3260ed0e7147f7cc6da11a60208b5b9406d12a635614ffd91435f1b61266e565b5f015f9054906101000a900460ff1615611b7957611b7483612677565b611c91565b8273ffffffffffffffffffffffffffffffffffffffff166352d1902d6040518163ffffffff1660e01b8152600401602060405180830381865afa925050508015611be157506040513d601f19601f82011682018060405250810190611bde9190613e9a565b60015b611c20576040517f08c379a0000000000000000000000000000000000000000000000000000000008152600401611c1790613f35565b60405180910390fd5b7f360894a13ba1a3210667c828492db98dca3e2076cc3735a920a3ca505d382bbc5f1b8114611c84576040517f08c379a0000000000000000000000000000000000000000000000000000000008152600401611c7b90613fc3565b60405180910390fd5b50611c9083838361272d565b5b505050565b611c9e612758565b73ffffffffffffffffffffffffffffffffffffffff16611cbc610a2d565b73ffffffffffffffffffffffffffffffffffffffff1614611d12576040517f08c379a0000000000000000000000000000000000000000000000000000000008152600401611d099061402b565b60405180910390fd5b565b5f60335f9054906101000a900473ffffffffffffffffffffffffffffffffffffffff1690508160335f6101000a81548173ffffffffffffffffffffffffffffffffffffffff021916908373ffffffffffffffffffffffffffffffffffffffff1602179055508173ffffffffffffffffffffffffffffffffffffffff168173ffffffffffffffffffffffffffffffffffffffff167f8be0079c531659141344cd1fd0a4f28419497f9722a3daafe3b4186f6b6457e060405160405180910390a35050565b5f5f8273ffffffffffffffffffffffffffffffffffffffff163b119050919050565b5f60019054906101000a900460ff16611e47576040517f08c379a0000000000000000000000000000000000000000000000000000000008152600401611e3e906140b9565b60405180910390fd5b611e4f61275f565b565b5f60019054906101000a900460ff16611e9f576040517f08c379a0000000000000000000000000000000000000000000000000000000008152600401611e96906140b9565b60405180910390fd5b565b5f60019054906101000a900460ff16611eef576040517f08c379a0000000000000000000000000000000000000000000000000000000008152600401611ee6906140b9565b60405180910390fd5b611ef76127bf565b565b5f5f73ffffffffffffffffffffffffffffffffffffffff166101055f9054906101000a900473ffffffffffffffffffffffffffffffffffffffff1673ffffffffffffffffffffffffffffffffffffffff1603611f8a576040517f08c379a0000000000000000000000000000000000000000000000000000000008152600401611f8190614121565b60405180910390fd5b5f6101055f9054906101000a900473ffffffffffffffffffffffffffffffffffffffff1673ffffffffffffffffffffffffffffffffffffffff1663feaf968c6040518163ffffffff1660e01b815260040160a060405180830381865afa158015611ff6573d5f5f3e3d5ffd5b505050506040513d601f19601f8201168201806040525081019061201a91906134ca565b5050509150505f8113612062576040517f08c379a000000000000000000000000000000000000000000000000000000000815260040161205990614189565b60405180910390fd5b5f8190505f6101055f9054906101000a900473ffffffffffffffffffffffffffffffffffffffff1673ffffffffffffffffffffffffffffffffffffffff1663313ce5676040518163ffffffff1660e01b8152600401602060405180830381865afa1580156120d2573d5f5f3e3d5ffd5b505050506040513d601f19601f820116820180604052508101906120f691906141d1565b60ff1690505f60fb6003015490505f73ffffffffffffffffffffffffffffffffffffffff1660fb6006015f9054906101000a900473ffffffffffffffffffffffffffffffffffffffff1673ffffffffffffffffffffffffffffffffffffffff16146121645760fb6007015490505b60fb6008015f9054906101000a900473ffffffffffffffffffffffffffffffffffffffff1673ffffffffffffffffffffffffffffffffffffffff165f73ffffffffffffffffffffffffffffffffffffffff16036121f55781600c6121c89190613325565b600a6121d4919061432b565b81846121e091906130dd565b6121ea919061314b565b94505050505061221f565b81600a612202919061432b565b818461220e91906130dd565b612218919061314b565b9450505050505b90565b5f5f73ffffffffffffffffffffffffffffffffffffffff166101055f9054906101000a900473ffffffffffffffffffffffffffffffffffffffff1673ffffffffffffffffffffffffffffffffffffffff16036122b3576040517f08c379a00000000000000000000000000000000000000000000000000000000081526004016122aa90614121565b60405180910390fd5b5f6101055f9054906101000a900473ffffffffffffffffffffffffffffffffffffffff1673ffffffffffffffffffffffffffffffffffffffff1663feaf968c6040518163ffffffff1660e01b815260040160a060405180830381865afa15801561231f573d5f5f3e3d5ffd5b505050506040513d601f19601f8201168201806040525081019061234391906134ca565b5050509150505f811361238b576040517f08c379a000000000000000000000000000000000000000000000000000000000815260040161238290614189565b60405180910390fd5b5f8190505f6101055f9054906101000a900473ffffffffffffffffffffffffffffffffffffffff1673ffffffffffffffffffffffffffffffffffffffff1663313ce5676040518163ffffffff1660e01b8152600401602060405180830381865afa1580156123fb573d5f5f3e3d5ffd5b505050506040513d601f19601f8201168201806040525081019061241f91906141d1565b60ff1690508573ffffffffffffffffffffffffffffffffffffffff165f73ffffffffffffffffffffffffffffffffffffffff16036124905780600c6124649190613325565b600a612470919061432b565b858361247c91906130dd565b612486919061314b565b93505050506124b9565b80600a61249d919061432b565b85836124a991906130dd565b6124b3919061314b565b93505050505b92915050565b5f73ffffffffffffffffffffffffffffffffffffffff168273ffffffffffffffffffffffffffffffffffffffff16036125a0575f8373ffffffffffffffffffffffffffffffffffffffff1682604051612517906143a2565b5f6040518083038185875af1925050503d805f8114612551576040519150601f19603f3d011682016040523d82523d5f602084013e612556565b606091505b505090508061259a576040517f08c379a000000000000000000000000000000000000000000000000000000000815260040161259190614400565b60405180910390fd5b50612660565b5f8273ffffffffffffffffffffffffffffffffffffffff1663a9059cbb85846040518363ffffffff1660e01b81526004016125dc92919061441e565b6020604051808303815f875af11580156125f8573d5f5f3e3d5ffd5b505050506040513d601f19601f8201168201806040525081019061261c9190613932565b90508061265e576040517f08c379a00000000000000000000000000000000000000000000000000000000081526004016126559061448f565b60405180910390fd5b505b505050565b5f819050919050565b5f819050919050565b61268081611dd7565b6126bf576040517f08c379a00000000000000000000000000000000000000000000000000000000081526004016126b69061451d565b60405180910390fd5b806126eb7f360894a13ba1a3210667c828492db98dca3e2076cc3735a920a3ca505d382bbc5f1b612665565b5f015f6101000a81548173ffffffffffffffffffffffffffffffffffffffff021916908373ffffffffffffffffffffffffffffffffffffffff16021790555050565b61273683612817565b5f825111806127425750805b15612753576127518383612866565b505b505050565b5f33905090565b5f60019054906101000a900460ff166127ad576040517f08c379a00000000000000000000000000000000000000000000000000000000081526004016127a4906140b9565b60405180910390fd5b6127bd6127b8612758565b611d14565b565b5f60019054906101000a900460ff1661280d576040517f08c379a0000000000000000000000000000000000000000000000000000000008152600401612804906140b9565b60405180910390fd5b600160c981905550565b61282081612677565b8073ffffffffffffffffffffffffffffffffffffffff167fbc7cd75a20ee27fd9adebab32041f755214dbc6bffa90cc0225b39da2e5c2d3b60405160405180910390a250565b606061288b83836040518060600160405280602781526020016145f460279139612893565b905092915050565b60605f5f8573ffffffffffffffffffffffffffffffffffffffff16856040516128bc9190614575565b5f60405180830381855af49150503d805f81146128f4576040519150601f19603f3d011682016040523d82523d5f602084013e6128f9565b606091505b509150915061290a86838387612915565b925050509392505050565b60608315612976575f83510361296e5761292e85611dd7565b61296d576040517f08c379a0000000000000000000000000000000000000000000000000000000008152600401612964906145d5565b60405180910390fd5b5b829050612981565b6129808383612989565b5b949350505050565b5f8251111561299b5781518083602001fd5b806040517f08c379a00000000000000000000000000000000000000000000000000000000081526004016129cf9190612a48565b60405180910390fd5b5f81519050919050565b5f82825260208201905092915050565b8281835e5f83830152505050565b5f601f19601f8301169050919050565b5f612a1a826129d8565b612a2481856129e2565b9350612a348185602086016129f2565b612a3d81612a00565b840191505092915050565b5f6020820190508181035f830152612a608184612a10565b905092915050565b5f604051905090565b5f5ffd5b5f5ffd5b5f73ffffffffffffffffffffffffffffffffffffffff82169050919050565b5f612aa282612a79565b9050919050565b612ab281612a98565b8114612abc575f5ffd5b50565b5f81359050612acd81612aa9565b92915050565b5f819050919050565b612ae581612ad3565b8114612aef575f5ffd5b50565b5f81359050612b0081612adc565b92915050565b5f5ffd5b5f5ffd5b5f5ffd5b5f5f83601f840112612b2757612b26612b06565b5b8235905067ffffffffffffffff811115612b4457612b43612b0a565b5b602083019150836001820283011115612b6057612b5f612b0e565b5b9250929050565b5f5f5f5f5f60808688031215612b8057612b7f612a71565b5b5f612b8d88828901612abf565b9550506020612b9e88828901612abf565b9450506040612baf88828901612af2565b935050606086013567ffffffffffffffff811115612bd057612bcf612a75565b5b612bdc88828901612b12565b92509250509295509295909350565b5f7fffffffff0000000000000000000000000000000000000000000000000000000082169050919050565b612c1f81612beb565b82525050565b5f602082019050612c385f830184612c16565b92915050565b5f60208284031215612c5357612c52612a71565b5b5f612c6084828501612af2565b91505092915050565b612c7281612ad3565b82525050565b5f602082019050612c8b5f830184612c69565b92915050565b5f60208284031215612ca657612ca5612a71565b5b5f612cb384828501612abf565b91505092915050565b5f5ffd5b7f4e487b71000000000000000000000000000000000000000000000000000000005f52604160045260245ffd5b612cf682612a00565b810181811067ffffffffffffffff82111715612d1557612d14612cc0565b5b80604052505050565b5f612d27612a68565b9050612d338282612ced565b919050565b5f67ffffffffffffffff821115612d5257612d51612cc0565b5b612d5b82612a00565b9050602081019050919050565b828183375f83830152505050565b5f612d88612d8384612d38565b612d1e565b905082815260208101848484011115612da457612da3612cbc565b5b612daf848285612d68565b509392505050565b5f82601f830112612dcb57612dca612b06565b5b8135612ddb848260208601612d76565b91505092915050565b5f5f60408385031215612dfa57612df9612a71565b5b5f612e0785828601612abf565b925050602083013567ffffffffffffffff811115612e2857612e27612a75565b5b612e3485828601612db7565b9150509250929050565b5f819050919050565b612e5081612e3e565b82525050565b5f602082019050612e695f830184612e47565b92915050565b612e7881612a98565b82525050565b5f8115159050919050565b612e9281612e7e565b82525050565b5f61012082019050612eac5f83018c612e6f565b612eb9602083018b612e6f565b612ec6604083018a612c69565b612ed36060830189612c69565b612ee06080830188612c69565b612eed60a0830187612c69565b612efa60c0830186612c69565b612f0760e0830185612e6f565b612f15610100830184612e89565b9a9950505050505050505050565b5f602082019050612f365f830184612e6f565b92915050565b5f819050919050565b612f4e81612f3c565b82525050565b5f602082019050612f675f830184612f45565b92915050565b5f5f60408385031215612f8357612f82612a71565b5b5f612f9085828601612abf565b9250506020612fa185828601612af2565b9150509250929050565b5f5f5f5f5f5f5f60e0888a031215612fc657612fc5612a71565b5b5f612fd38a828b01612abf565b9750506020612fe48a828b01612abf565b9650506040612ff58a828b01612af2565b95505060606130068a828b01612af2565b94505060806130178a828b01612af2565b93505060a06130288a828b01612abf565b92505060c06130398a828b01612af2565b91505092959891949750929550565b7f496e76616c6964204554482070726963650000000000000000000000000000005f82015250565b5f61307c6011836129e2565b915061308782613048565b602082019050919050565b5f6020820190508181035f8301526130a981613070565b9050919050565b7f4e487b71000000000000000000000000000000000000000000000000000000005f52601160045260245ffd5b5f6130e782612ad3565b91506130f283612ad3565b925082820261310081612ad3565b91508282048414831517613117576131166130b0565b5b5092915050565b7f4e487b71000000000000000000000000000000000000000000000000000000005f52601260045260245ffd5b5f61315582612ad3565b915061316083612ad3565b9250826131705761316f61311e565b5b828204905092915050565b7f46756e6374696f6e206d7573742062652063616c6c6564207468726f756768205f8201527f64656c656761746563616c6c0000000000000000000000000000000000000000602082015250565b5f6131d5602c836129e2565b91506131e08261317b565b604082019050919050565b5f6020820190508181035f830152613202816131c9565b9050919050565b7f46756e6374696f6e206d7573742062652063616c6c6564207468726f756768205f8201527f6163746976652070726f78790000000000000000000000000000000000000000602082015250565b5f613263602c836129e2565b915061326e82613209565b604082019050919050565b5f6020820190508181035f83015261329081613257565b9050919050565b7f555550535570677261646561626c653a206d757374206e6f742062652063616c5f8201527f6c6564207468726f7567682064656c656761746563616c6c0000000000000000602082015250565b5f6132f16038836129e2565b91506132fc82613297565b604082019050919050565b5f6020820190508181035f83015261331e816132e5565b9050919050565b5f61332f82612ad3565b915061333a83612ad3565b9250828201905080821115613352576133516130b0565b5b92915050565b7f496e697469616c697a61626c653a20636f6e747261637420697320616c7265615f8201527f647920696e697469616c697a6564000000000000000000000000000000000000602082015250565b5f6133b2602e836129e2565b91506133bd82613358565b604082019050919050565b5f6020820190508181035f8301526133df816133a6565b9050919050565b5f819050919050565b5f60ff82169050919050565b5f819050919050565b5f61341e613419613414846133e6565b6133fb565b6133ef565b9050919050565b61342e81613404565b82525050565b5f6020820190506134475f830184613425565b92915050565b5f69ffffffffffffffffffff82169050919050565b61346b8161344d565b8114613475575f5ffd5b50565b5f8151905061348681613462565b92915050565b61349581612f3c565b811461349f575f5ffd5b50565b5f815190506134b08161348c565b92915050565b5f815190506134c481612adc565b92915050565b5f5f5f5f5f60a086880312156134e3576134e2612a71565b5b5f6134f088828901613478565b9550506020613501888289016134a2565b9450506040613512888289016134b6565b9350506060613523888289016134b6565b925050608061353488828901613478565b9150509295509295909350565b7f53656c6c65722063616e6e6f74206269640000000000000000000000000000005f82015250565b5f6135756011836129e2565b915061358082613541565b602082019050919050565b5f6020820190508181035f8301526135a281613569565b9050919050565b7f41756374696f6e206e6f742065786973747300000000000000000000000000005f82015250565b5f6135dd6012836129e2565b91506135e8826135a9565b602082019050919050565b5f6020820190508181035f83015261360a816135d1565b9050919050565b7f41756374696f6e20656e646564000000000000000000000000000000000000005f82015250565b5f613645600d836129e2565b915061365082613611565b602082019050919050565b5f6020820190508181035f83015261367281613639565b9050919050565b7f496e73756666696369656e7420626964000000000000000000000000000000005f82015250565b5f6136ad6010836129e2565b91506136b882613679565b602082019050919050565b5f6020820190508181035f8301526136da816136a1565b9050919050565b7f455243323020626964206e656564206e6f742073656e642045544800000000005f82015250565b5f613715601b836129e2565b9150613720826136e1565b602082019050919050565b5f6020820190508181035f83015261374281613709565b9050919050565b5f60408201905061375c5f830185612e6f565b6137696020830184612e6f565b9392505050565b5f6020828403121561378557613784612a71565b5b5f613792848285016134b6565b91505092915050565b7f455243323020616c6c6f77616e6365206e6f7420656e6f7567680000000000005f82015250565b5f6137cf601a836129e2565b91506137da8261379b565b602082019050919050565b5f6020820190508181035f8301526137fc816137c3565b9050919050565b7f62696420616d6f756e74206e656564203e2030000000000000000000000000005f82015250565b5f6138376013836129e2565b915061384282613803565b602082019050919050565b5f6020820190508181035f8301526138648161382b565b9050919050565b7f62696420616d6f756e74206e656564203e2068696768657374426964000000005f82015250565b5f61389f601c836129e2565b91506138aa8261386b565b602082019050919050565b5f6020820190508181035f8301526138cc81613893565b9050919050565b5f6060820190506138e65f830186612e6f565b6138f36020830185612e6f565b6139006040830184612c69565b949350505050565b61391181612e7e565b811461391b575f5ffd5b50565b5f8151905061392c81613908565b92915050565b5f6020828403121561394757613946612a71565b5b5f6139548482850161391e565b91505092915050565b7f4552433230207472616e73666572206661696c656400000000000000000000005f82015250565b5f6139916015836129e2565b915061399c8261395d565b602082019050919050565b5f6020820190508181035f8301526139be81613985565b9050919050565b5f6060820190506139d85f830186612c69565b6139e56020830185612c69565b6139f26040830184612e6f565b949350505050565b7f53656c6c657220616464726573732063616e206e6f74206265207a65726f00005f82015250565b5f613a2e601e836129e2565b9150613a39826139fa565b602082019050919050565b5f6020820190508181035f830152613a5b81613a22565b9050919050565b7f4e465420636f6e747261637420616464726573732063616e206e6f74206265205f8201527f7a65726f00000000000000000000000000000000000000000000000000000000602082015250565b5f613abc6024836129e2565b9150613ac782613a62565b604082019050919050565b5f6020820190508181035f830152613ae981613ab0565b9050919050565b7f6475726174696f6e206e656564203e20300000000000000000000000000000005f82015250565b5f613b246011836129e2565b9150613b2f82613af0565b602082019050919050565b5f6020820190508181035f830152613b5181613b18565b9050919050565b7f5374617274207072696365206d7573742062652067726561746572207468616e5f8201527f207a65726f000000000000000000000000000000000000000000000000000000602082015250565b5f613bb26025836129e2565b9150613bbd82613b58565b604082019050919050565b5f6020820190508181035f830152613bdf81613ba6565b9050919050565b7f746f6b656e4964206e656564203e2030000000000000000000000000000000005f82015250565b5f613c1a6010836129e2565b9150613c2582613be6565b602082019050919050565b5f6020820190508181035f830152613c4781613c0e565b9050919050565b5f81519050613c5c81612aa9565b92915050565b5f60208284031215613c7757613c76612a71565b5b5f613c8484828501613c4e565b91505092915050565b7f596f7520617265206e6f7420746865206f776e6572206f662074686973204e465f8201527f5400000000000000000000000000000000000000000000000000000000000000602082015250565b5f613ce76021836129e2565b9150613cf282613c8d565b604082019050919050565b5f6020820190508181035f830152613d1481613cdb565b9050919050565b5f60c082019050613d2e5f830189612c69565b613d3b6020830188612c69565b613d486040830187612c69565b613d556060830186612c69565b613d626080830185612e6f565b613d6f60a0830184612c69565b979650505050505050565b7f4f776e61626c653a206e6577206f776e657220697320746865207a65726f20615f8201527f6464726573730000000000000000000000000000000000000000000000000000602082015250565b5f613dd46026836129e2565b9150613ddf82613d7a565b604082019050919050565b5f6020820190508181035f830152613e0181613dc8565b9050919050565b7f61756374696f6e206e6f7420656e6465640000000000000000000000000000005f82015250565b5f613e3c6011836129e2565b9150613e4782613e08565b602082019050919050565b5f6020820190508181035f830152613e6981613e30565b9050919050565b613e7981612e3e565b8114613e83575f5ffd5b50565b5f81519050613e9481613e70565b92915050565b5f60208284031215613eaf57613eae612a71565b5b5f613ebc84828501613e86565b91505092915050565b7f45524331393637557067726164653a206e657720696d706c656d656e746174695f8201527f6f6e206973206e6f742055555053000000000000000000000000000000000000602082015250565b5f613f1f602e836129e2565b9150613f2a82613ec5565b604082019050919050565b5f6020820190508181035f830152613f4c81613f13565b9050919050565b7f45524331393637557067726164653a20756e737570706f727465642070726f785f8201527f6961626c65555549440000000000000000000000000000000000000000000000602082015250565b5f613fad6029836129e2565b9150613fb882613f53565b604082019050919050565b5f6020820190508181035f830152613fda81613fa1565b9050919050565b7f4f776e61626c653a2063616c6c6572206973206e6f7420746865206f776e65725f82015250565b5f6140156020836129e2565b915061402082613fe1565b602082019050919050565b5f6020820190508181035f83015261404281614009565b9050919050565b7f496e697469616c697a61626c653a20636f6e7472616374206973206e6f7420695f8201527f6e697469616c697a696e67000000000000000000000000000000000000000000602082015250565b5f6140a3602b836129e2565b91506140ae82614049565b604082019050919050565b5f6020820190508181035f8301526140d081614097565b9050919050565b7f50726963652066656564206e6f742073657420666f7220706179546f6b656e005f82015250565b5f61410b601f836129e2565b9150614116826140d7565b602082019050919050565b5f6020820190508181035f830152614138816140ff565b9050919050565b7f496e76616c69642070726963652066726f6d20666565640000000000000000005f82015250565b5f6141736017836129e2565b915061417e8261413f565b602082019050919050565b5f6020820190508181035f8301526141a081614167565b9050919050565b6141b0816133ef565b81146141ba575f5ffd5b50565b5f815190506141cb816141a7565b92915050565b5f602082840312156141e6576141e5612a71565b5b5f6141f3848285016141bd565b91505092915050565b5f8160011c9050919050565b5f5f8291508390505b60018511156142515780860481111561422d5761422c6130b0565b5b600185161561423c5780820291505b808102905061424a856141fc565b9450614211565b94509492505050565b5f826142695760019050614324565b81614276575f9050614324565b816001811461428c5760028114614296576142c5565b6001915050614324565b60ff8411156142a8576142a76130b0565b5b8360020a9150848211156142bf576142be6130b0565b5b50614324565b5060208310610133831016604e8410600b84101617156142fa5782820a9050838111156142f5576142f46130b0565b5b614324565b6143078484846001614208565b9250905081840481111561431e5761431d6130b0565b5b81810290505b9392505050565b5f61433582612ad3565b915061434083612ad3565b925061436d7fffffffffffffffffffffffffffffffffffffffffffffffffffffffffffffffff848461425a565b905092915050565b5f81905092915050565b50565b5f61438d5f83614375565b91506143988261437f565b5f82019050919050565b5f6143ac82614382565b9150819050919050565b7f45544820726566756e64206661696c65640000000000000000000000000000005f82015250565b5f6143ea6011836129e2565b91506143f5826143b6565b602082019050919050565b5f6020820190508181035f830152614417816143de565b9050919050565b5f6040820190506144315f830185612e6f565b61443e6020830184612c69565b9392505050565b7f455243323020726566756e64206661696c6564000000000000000000000000005f82015250565b5f6144796013836129e2565b915061448482614445565b602082019050919050565b5f6020820190508181035f8301526144a68161446d565b9050919050565b7f455243313936373a206e657720696d706c656d656e746174696f6e206973206e5f8201527f6f74206120636f6e747261637400000000000000000000000000000000000000602082015250565b5f614507602d836129e2565b9150614512826144ad565b604082019050919050565b5f6020820190508181035f830152614534816144fb565b9050919050565b5f81519050919050565b5f61454f8261453b565b6145598185614375565b93506145698185602086016129f2565b80840191505092915050565b5f6145808284614545565b915081905092915050565b7f416464726573733a2063616c6c20746f206e6f6e2d636f6e74726163740000005f82015250565b5f6145bf601d836129e2565b91506145ca8261458b565b602082019050919050565b5f6020820190508181035f8301526145ec816145b3565b905091905056fe416464726573733a206c6f772d6c6576656c2064656c65676174652063616c6c206661696c6564a264697066735822122070dcc9c8ff3fd2216e86bfddc9ac65f3af1076fcd1ead271f2cce3c6ce9557bb64736f6c634300081c0033","linkReferences":{}},"methodIdentifiers":{"buy(address,uint256)":"cce7ec13","endAuction()":"fe67a54b","ethToUSD(uint256)":"196e609d","getAuction(uint256)":"78bd7935","getETHPrice()":"a607a8d9","getVersion()":"0d8e6e2c","initialize()":"8129fc1c","onERC721Received(address,address,uint256,bytes)":"150b7a02","owner()":"8da5cb5b","proxiableUUID()":"52d1902d","renounceOwnership()":"715018a6","setPriceFeed(address)":"724e78da","start(address,address,uint256,uint256,uint256,address,uint256)":"ccf918a1","transferOwnership(address)":"f2fde38b","upgradeTo(address)":"3659cfe6","upgradeToAndCall(address,bytes)":"4f1ef286"},"id":1}