{"abi":[{"type":"constructor","inputs":[],"stateMutability":"nonpayable"},{"type":"function","name":"auctionId","inputs":[],"outputs":[{"name":"","type":"uint256","internalType":"uint256"}],"stateMutability":"view"},{"type":"function","name":"auctions","inputs":[{"name":"","type":"uint256","internalType":"uint256"}],"outputs":[{"name":"seller","type":"address","internalType":"address payable"},{"name":"nft","type":"address","internalType":"contract IERC721"},{"name":"nftId","type":"uint256","internalType":"uint256"},{"name":"startingPriceInDollar","type":"uint256","internalType":"uint256"},{"name":"startingTime","type":"uint256","internalType":"uint256"},{"name":"duration","type":"uint256","internalType":"uint256"},{"name":"highestBidder","type":"address","internalType":"address"},{"name":"highestBid","type":"uint256","internalType":"uint256"},{"name":"paymentToken","type":"address","internalType":"contract IERC20"},{"name":"ended","type":"bool","internalType":"bool"}],"stateMutability":"view"},{"type":"function","name":"bid","inputs":[{"name":"auctionId_","type":"uint256","internalType":"uint256"}],"outputs":[],"stateMutability":"payable"},{"type":"function","name":"bidMethods","inputs":[{"name":"","type":"uint256","internalType":"uint256"},{"name":"","type":"address","internalType":"address"}],"outputs":[{"name":"","type":"uint256","internalType":"uint256"}],"stateMutability":"view"},{"type":"function","name":"bids","inputs":[{"name":"","type":"uint256","internalType":"uint256"},{"name":"","type":"address","internalType":"address"}],"outputs":[{"name":"","type":"uint256","internalType":"uint256"}],"stateMutability":"view"},{"type":"function","name":"endAuction","inputs":[{"name":"auctionId_","type":"uint256","internalType":"uint256"}],"outputs":[],"stateMutability":"nonpayable"},{"type":"function","name":"getVersion","inputs":[],"outputs":[{"name":"","type":"string","internalType":"string"}],"stateMutability":"pure"},{"type":"function","name":"initialize","inputs":[{"name":"admin_","type":"address","internalType":"address"}],"outputs":[],"stateMutability":"nonpayable"},{"type":"function","name":"start","inputs":[{"name":"seller","type":"address","internalType":"address"},{"name":"nftId","type":"uint256","internalType":"uint256"},{"name":"nft","type":"address","internalType":"address"},{"name":"startingPriceInDollar","type":"uint256","internalType":"uint256"},{"name":"duration","type":"uint256","internalType":"uint256"},{"name":"paymentToken","type":"address","internalType":"address"}],"outputs":[],"stateMutability":"nonpayable"},{"type":"event","name":"Bid","inputs":[{"name":"sender","type":"address","indexed":true,"internalType":"address"},{"name":"amount","type":"uint256","indexed":false,"internalType":"uint256"},{"name":"bidMethod","type":"uint256","indexed":false,"internalType":"uint256"}],"anonymous":false},{"type":"event","name":"EndBid","inputs":[{"name":"auctionId","type":"uint256","indexed":true,"internalType":"uint256"}],"anonymous":false},{"type":"event","name":"Initialized","inputs":[{"name":"version","type":"uint8","indexed":false,"internalType":"uint8"}],"anonymous":false},{"type":"event","name":"StartBid","inputs":[{"name":"startingBid","type":"uint256","indexed":false,"internalType":"uint256"}],"anonymous":false},{"type":"event","name":"Withdraw","inputs":[{"name":"bidder","type":"address","indexed":true,"internalType":"address"},{"name":"amount","type":"uint256","indexed":false,"internalType":"uint256"}],"anonymous":false}],"bytecode":{"object":"0x608060405234801561000f575f5ffd5b5061001e61002360201b60201c565b6101b3565b5f60019054906101000a900460ff1615610072576040517f08c379a000000000000000000000000000000000000000000000000000000000815260040161006990610161565b60405180910390fd5b60ff80165f5f9054906101000a900460ff1660ff16146100df5760ff5f5f6101000a81548160ff021916908360ff1602179055507f7f26b83ff96e1f2b6a682f133852f6798a09c465da95921460cefb384740249860ff6040516100d6919061019a565b60405180910390a15b565b5f82825260208201905092915050565b7f496e697469616c697a61626c653a20636f6e747261637420697320696e6974695f8201527f616c697a696e6700000000000000000000000000000000000000000000000000602082015250565b5f61014b6027836100e1565b9150610156826100f1565b604082019050919050565b5f6020820190508181035f8301526101788161013f565b9050919050565b5f60ff82169050919050565b6101948161017f565b82525050565b5f6020820190506101ad5f83018461018b565b92915050565b612046806101c05f395ff3fe608060405260043610610085575f3560e01c80634d10e8a2116100585780634d10e8a214610135578063571a26a014610171578063b9a2de3a146101b6578063baac642b146101de578063c4d66de81461020657610085565b80630d8e6e2c1461008957806310782f8f146100b35780633f1ffcec146100dd578063454a2ab314610119575b5f5ffd5b348015610094575f5ffd5b5061009d61022e565b6040516100aa9190611303565b60405180910390f35b3480156100be575f5ffd5b506100c761026b565b6040516100d4919061133b565b60405180910390f35b3480156100e8575f5ffd5b5061010360048036038101906100fe91906113dc565b610271565b604051610110919061133b565b60405180910390f35b610133600480360381019061012e919061141a565b610291565b005b348015610140575f5ffd5b5061015b600480360381019061015691906113dc565b610a09565b604051610168919061133b565b60405180910390f35b34801561017c575f5ffd5b506101976004803603810190610192919061141a565b610a29565b6040516101ad9a99989796959493929190611509565b60405180910390f35b3480156101c1575f5ffd5b506101dc60048036038101906101d7919061141a565b610b02565b005b3480156101e9575f5ffd5b5061020460048036038101906101ff91906115a3565b610b64565b005b348015610211575f5ffd5b5061022c6004803603810190610227919061162c565b610f8a565b005b60606040518060400160405280600e81526020017f4d794e465441756374696f6e5632000000000000000000000000000000000000815250905090565b60045481565b6001602052815f5260405f20602052805f5260405f205f91509150505481565b5f60035f8381526020019081526020015f20604051806101400160405290815f82015f9054906101000a900473ffffffffffffffffffffffffffffffffffffffff1673ffffffffffffffffffffffffffffffffffffffff1673ffffffffffffffffffffffffffffffffffffffff168152602001600182015f9054906101000a900473ffffffffffffffffffffffffffffffffffffffff1673ffffffffffffffffffffffffffffffffffffffff1673ffffffffffffffffffffffffffffffffffffffff16815260200160028201548152602001600382015481526020016004820154815260200160058201548152602001600682015f9054906101000a900473ffffffffffffffffffffffffffffffffffffffff1673ffffffffffffffffffffffffffffffffffffffff1673ffffffffffffffffffffffffffffffffffffffff16815260200160078201548152602001600882015f9054906101000a900473ffffffffffffffffffffffffffffffffffffffff1673ffffffffffffffffffffffffffffffffffffffff1673ffffffffffffffffffffffffffffffffffffffff1681526020016008820160149054906101000a900460ff16151515158152505090505f81610100015173ffffffffffffffffffffffffffffffffffffffff1663dd62ed3e33306040518363ffffffff1660e01b8152600401610492929190611657565b602060405180830381865afa1580156104ad573d5f5f3e3d5ffd5b505050506040513d601f19601f820116820180604052508101906104d19190611692565b90505f3411806104e057505f81115b61051f576040517f08c379a000000000000000000000000000000000000000000000000000000000815260040161051690611707565b60405180910390fd5b5f3411801561052d57505f81115b61056c576040517f08c379a00000000000000000000000000000000000000000000000000000000081526004016105639061176f565b60405180910390fd5b5f8260800151116105b2576040517f08c379a00000000000000000000000000000000000000000000000000000000081526004016105a9906117d7565b60405180910390fd5b816101200151156105f8576040517f08c379a00000000000000000000000000000000000000000000000000000000081526004016105ef9061183f565b60405180910390fd5b8160a00151826080015161060c919061188a565b421061064d576040517f08c379a00000000000000000000000000000000000000000000000000000000081526004016106449061183f565b60405180910390fd5b5f73ffffffffffffffffffffffffffffffffffffffff168260c0015173ffffffffffffffffffffffffffffffffffffffff16146106ef578160e0015160015f8581526020019081526020015f205f8460c0015173ffffffffffffffffffffffffffffffffffffffff1673ffffffffffffffffffffffffffffffffffffffff1681526020019081526020015f205f8282546106e7919061188a565b925050819055505b5f5f5f3411156109345760025f8681526020019081526020015f205f3373ffffffffffffffffffffffffffffffffffffffff1673ffffffffffffffffffffffffffffffffffffffff1681526020019081526020015f205491505f82036107a957600191508160025f8781526020019081526020015f205f3373ffffffffffffffffffffffffffffffffffffffff1673ffffffffffffffffffffffffffffffffffffffff1681526020019081526020015f20819055506107ed565b600182146107ec576040517f08c379a00000000000000000000000000000000000000000000000000000000081526004016107e390611707565b60405180910390fd5b5b5f60055f9054906101000a900473ffffffffffffffffffffffffffffffffffffffff1673ffffffffffffffffffffffffffffffffffffffff1663feaf968c6040518163ffffffff1660e01b815260040160a060405180830381865afa158015610858573d5f5f3e3d5ffd5b505050506040513d601f19601f8201168201806040525081019061087c919061192f565b5050509150505f8190505f60055f9054906101000a900473ffffffffffffffffffffffffffffffffffffffff1673ffffffffffffffffffffffffffffffffffffffff1663313ce5676040518163ffffffff1660e01b8152600401602060405180830381865afa1580156108f1573d5f5f3e3d5ffd5b505050506040513d601f19601f8201168201806040525081019061091591906119dc565b905061092434601284846111bf565b9350348760e00181815250505050505b8084606001511061097a576040517f08c379a000000000000000000000000000000000000000000000000000000000815260040161097190611a51565b60405180910390fd5b338460c0019073ffffffffffffffffffffffffffffffffffffffff16908173ffffffffffffffffffffffffffffffffffffffff16815250503373ffffffffffffffffffffffffffffffffffffffff167f19421268847f42dd61705778018ddfc43bcdce8517e7a630acb12f122c70948134846040516109fa929190611a6f565b60405180910390a25050505050565b6002602052815f5260405f20602052805f5260405f205f91509150505481565b6003602052805f5260405f205f91509050805f015f9054906101000a900473ffffffffffffffffffffffffffffffffffffffff1690806001015f9054906101000a900473ffffffffffffffffffffffffffffffffffffffff1690806002015490806003015490806004015490806005015490806006015f9054906101000a900473ffffffffffffffffffffffffffffffffffffffff1690806007015490806008015f9054906101000a900473ffffffffffffffffffffffffffffffffffffffff16908060080160149054906101000a900460ff1690508a565b5f60035f8381526020019081526020015f20905060018160080160146101000a81548160ff021916908315150217905550817f49f8c3bdcd0eb514e0cc6e15c20ea38221feede47b929c3ea387bf7ec5ed09cf60405160405180910390a25050565b5f60029054906101000a900473ffffffffffffffffffffffffffffffffffffffff1673ffffffffffffffffffffffffffffffffffffffff163373ffffffffffffffffffffffffffffffffffffffff1614610bf3576040517f08c379a0000000000000000000000000000000000000000000000000000000008152600401610bea90611ae0565b60405180910390fd5b5f73ffffffffffffffffffffffffffffffffffffffff168473ffffffffffffffffffffffffffffffffffffffff1603610c61576040517f08c379a0000000000000000000000000000000000000000000000000000000008152600401610c5890611b48565b60405180910390fd5b603c8211610ca4576040517f08c379a0000000000000000000000000000000000000000000000000000000008152600401610c9b90611bb0565b60405180910390fd5b5f73ffffffffffffffffffffffffffffffffffffffff168173ffffffffffffffffffffffffffffffffffffffff1603610d12576040517f08c379a0000000000000000000000000000000000000000000000000000000008152600401610d0990611c18565b60405180910390fd5b6040518061014001604052808773ffffffffffffffffffffffffffffffffffffffff1681526020018573ffffffffffffffffffffffffffffffffffffffff1681526020018681526020018481526020014281526020018381526020015f73ffffffffffffffffffffffffffffffffffffffff1681526020015f81526020018273ffffffffffffffffffffffffffffffffffffffff1681526020015f151581525060035f60045481526020019081526020015f205f820151815f015f6101000a81548173ffffffffffffffffffffffffffffffffffffffff021916908373ffffffffffffffffffffffffffffffffffffffff1602179055506020820151816001015f6101000a81548173ffffffffffffffffffffffffffffffffffffffff021916908373ffffffffffffffffffffffffffffffffffffffff16021790555060408201518160020155606082015181600301556080820151816004015560a0820151816005015560c0820151816006015f6101000a81548173ffffffffffffffffffffffffffffffffffffffff021916908373ffffffffffffffffffffffffffffffffffffffff16021790555060e08201518160070155610100820151816008015f6101000a81548173ffffffffffffffffffffffffffffffffffffffff021916908373ffffffffffffffffffffffffffffffffffffffff1602179055506101208201518160080160146101000a81548160ff02191690831515021790555090505060045f815480929190610f4490611c36565b91905055507fb5949404365a99702891e7d343a17849cef9b8b7bdb7773922e333f46de188a7600454604051610f7a919061133b565b60405180910390a1505050505050565b5f5f60019054906101000a900460ff16159050808015610fba575060015f5f9054906101000a900460ff1660ff16105b80610fe75750610fc930611271565b158015610fe6575060015f5f9054906101000a900460ff1660ff16145b5b611026576040517f08c379a000000000000000000000000000000000000000000000000000000000815260040161101d90611ced565b60405180910390fd5b60015f5f6101000a81548160ff021916908360ff16021790555080156110615760015f60016101000a81548160ff0219169083151502179055505b5f73ffffffffffffffffffffffffffffffffffffffff168273ffffffffffffffffffffffffffffffffffffffff16036110cf576040517f08c379a00000000000000000000000000000000000000000000000000000000081526004016110c690611d55565b60405180910390fd5b815f60026101000a81548173ffffffffffffffffffffffffffffffffffffffff021916908373ffffffffffffffffffffffffffffffffffffffff16021790555073694aa1769357215de4fac081bf1f309adc32530660055f6101000a81548173ffffffffffffffffffffffffffffffffffffffff021916908373ffffffffffffffffffffffffffffffffffffffff16021790555080156111bb575f5f60016101000a81548160ff0219169083151502179055507f7f26b83ff96e1f2b6a682f133852f6798a09c465da95921460cefb384740249860016040516111b29190611dac565b60405180910390a15b5050565b5f5f8460ff16600a6111d19190611ef4565b90505f8185886111e19190611f3e565b6111eb9190611fac565b9050600860ff168460ff16111561122a576008846112099190611fdc565b60ff16600a6112189190611ef4565b816112239190611fac565b9050611264565b600860ff168460ff161015611263578360086112469190611fdc565b60ff16600a6112559190611ef4565b816112609190611f3e565b90505b5b8092505050949350505050565b5f5f8273ffffffffffffffffffffffffffffffffffffffff163b119050919050565b5f81519050919050565b5f82825260208201905092915050565b8281835e5f83830152505050565b5f601f19601f8301169050919050565b5f6112d582611293565b6112df818561129d565b93506112ef8185602086016112ad565b6112f8816112bb565b840191505092915050565b5f6020820190508181035f83015261131b81846112cb565b905092915050565b5f819050919050565b61133581611323565b82525050565b5f60208201905061134e5f83018461132c565b92915050565b5f5ffd5b61136181611323565b811461136b575f5ffd5b50565b5f8135905061137c81611358565b92915050565b5f73ffffffffffffffffffffffffffffffffffffffff82169050919050565b5f6113ab82611382565b9050919050565b6113bb816113a1565b81146113c5575f5ffd5b50565b5f813590506113d6816113b2565b92915050565b5f5f604083850312156113f2576113f1611354565b5b5f6113ff8582860161136e565b9250506020611410858286016113c8565b9150509250929050565b5f6020828403121561142f5761142e611354565b5b5f61143c8482850161136e565b91505092915050565b5f61144f82611382565b9050919050565b61145f81611445565b82525050565b5f819050919050565b5f61148861148361147e84611382565b611465565b611382565b9050919050565b5f6114998261146e565b9050919050565b5f6114aa8261148f565b9050919050565b6114ba816114a0565b82525050565b6114c9816113a1565b82525050565b5f6114d98261148f565b9050919050565b6114e9816114cf565b82525050565b5f8115159050919050565b611503816114ef565b82525050565b5f6101408201905061151d5f83018d611456565b61152a602083018c6114b1565b611537604083018b61132c565b611544606083018a61132c565b611551608083018961132c565b61155e60a083018861132c565b61156b60c08301876114c0565b61157860e083018661132c565b6115866101008301856114e0565b6115946101208301846114fa565b9b9a5050505050505050505050565b5f5f5f5f5f5f60c087890312156115bd576115bc611354565b5b5f6115ca89828a016113c8565b96505060206115db89828a0161136e565b95505060406115ec89828a016113c8565b94505060606115fd89828a0161136e565b935050608061160e89828a0161136e565b92505060a061161f89828a016113c8565b9150509295509295509295565b5f6020828403121561164157611640611354565b5b5f61164e848285016113c8565b91505092915050565b5f60408201905061166a5f8301856114c0565b61167760208301846114c0565b9392505050565b5f8151905061168c81611358565b92915050565b5f602082840312156116a7576116a6611354565b5b5f6116b48482850161167e565b91505092915050565b7f696e76616c6964206269640000000000000000000000000000000000000000005f82015250565b5f6116f1600b8361129d565b91506116fc826116bd565b602082019050919050565b5f6020820190508181035f83015261171e816116e5565b9050919050565b7f6f6e6c79206f6e65206f6620455448206f7220746f6b656e00000000000000005f82015250565b5f61175960188361129d565b915061176482611725565b602082019050919050565b5f6020820190508181035f8301526117868161174d565b9050919050565b7f41756374696f6e206e6f742073746172740000000000000000000000000000005f82015250565b5f6117c160118361129d565b91506117cc8261178d565b602082019050919050565b5f6020820190508181035f8301526117ee816117b5565b9050919050565b7f41756374696f6e20656e646564000000000000000000000000000000000000005f82015250565b5f611829600d8361129d565b9150611834826117f5565b602082019050919050565b5f6020820190508181035f8301526118568161181d565b9050919050565b7f4e487b71000000000000000000000000000000000000000000000000000000005f52601160045260245ffd5b5f61189482611323565b915061189f83611323565b92508282019050808211156118b7576118b661185d565b5b92915050565b5f69ffffffffffffffffffff82169050919050565b6118db816118bd565b81146118e5575f5ffd5b50565b5f815190506118f6816118d2565b92915050565b5f819050919050565b61190e816118fc565b8114611918575f5ffd5b50565b5f8151905061192981611905565b92915050565b5f5f5f5f5f60a0868803121561194857611947611354565b5b5f611955888289016118e8565b95505060206119668882890161191b565b94505060406119778882890161167e565b93505060606119888882890161167e565b9250506080611999888289016118e8565b9150509295509295909350565b5f60ff82169050919050565b6119bb816119a6565b81146119c5575f5ffd5b50565b5f815190506119d6816119b2565b92915050565b5f602082840312156119f1576119f0611354565b5b5f6119fe848285016119c8565b91505092915050565b7f696e76616c6964207374617274696e67507269636500000000000000000000005f82015250565b5f611a3b60158361129d565b9150611a4682611a07565b602082019050919050565b5f6020820190508181035f830152611a6881611a2f565b9050919050565b5f604082019050611a825f83018561132c565b611a8f602083018461132c565b9392505050565b7f6e6f742061646d696e00000000000000000000000000000000000000000000005f82015250565b5f611aca60098361129d565b9150611ad582611a96565b602082019050919050565b5f6020820190508181035f830152611af781611abe565b9050919050565b7f53656c6c657220616464726573732063616e206e6f74206265207a65726f00005f82015250565b5f611b32601e8361129d565b9150611b3d82611afe565b602082019050919050565b5f6020820190508181035f830152611b5f81611b26565b9050919050565b7f6475726174696f6e206e656564203e20300000000000000000000000000000005f82015250565b5f611b9a60118361129d565b9150611ba582611b66565b602082019050919050565b5f6020820190508181035f830152611bc781611b8e565b9050919050565b7f696e76616c6964207061796d656e7420746f6b656e00000000000000000000005f82015250565b5f611c0260158361129d565b9150611c0d82611bce565b602082019050919050565b5f6020820190508181035f830152611c2f81611bf6565b9050919050565b5f611c4082611323565b91507fffffffffffffffffffffffffffffffffffffffffffffffffffffffffffffffff8203611c7257611c7161185d565b5b600182019050919050565b7f496e697469616c697a61626c653a20636f6e747261637420697320616c7265615f8201527f647920696e697469616c697a6564000000000000000000000000000000000000602082015250565b5f611cd7602e8361129d565b9150611ce282611c7d565b604082019050919050565b5f6020820190508181035f830152611d0481611ccb565b9050919050565b7f696e76616c69642061646d696e000000000000000000000000000000000000005f82015250565b5f611d3f600d8361129d565b9150611d4a82611d0b565b602082019050919050565b5f6020820190508181035f830152611d6c81611d33565b9050919050565b5f819050919050565b5f611d96611d91611d8c84611d73565b611465565b6119a6565b9050919050565b611da681611d7c565b82525050565b5f602082019050611dbf5f830184611d9d565b92915050565b5f8160011c9050919050565b5f5f8291508390505b6001851115611e1a57808604811115611df657611df561185d565b5b6001851615611e055780820291505b8081029050611e1385611dc5565b9450611dda565b94509492505050565b5f82611e325760019050611eed565b81611e3f575f9050611eed565b8160018114611e555760028114611e5f57611e8e565b6001915050611eed565b60ff841115611e7157611e7061185d565b5b8360020a915084821115611e8857611e8761185d565b5b50611eed565b5060208310610133831016604e8410600b8410161715611ec35782820a905083811115611ebe57611ebd61185d565b5b611eed565b611ed08484846001611dd1565b92509050818404811115611ee757611ee661185d565b5b81810290505b9392505050565b5f611efe82611323565b9150611f0983611323565b9250611f367fffffffffffffffffffffffffffffffffffffffffffffffffffffffffffffffff8484611e23565b905092915050565b5f611f4882611323565b9150611f5383611323565b9250828202611f6181611323565b91508282048414831517611f7857611f7761185d565b5b5092915050565b7f4e487b71000000000000000000000000000000000000000000000000000000005f52601260045260245ffd5b5f611fb682611323565b9150611fc183611323565b925082611fd157611fd0611f7f565b5b828204905092915050565b5f611fe6826119a6565b9150611ff1836119a6565b9250828203905060ff81111561200a5761200961185d565b5b9291505056fea2646970667358221220dd5224d9025f523c1bbe331719e2cf1f7365e11f57d1940b27f3b184f1b64f2564736f6c634300081c0033","linkReferences":{}},"methodIdentifiers":{"auctionId()":"10782f8f","auctions(uint256)":"571a26a0","bid(uint256)":"454a2ab3","bidMethods(uint256,address)":"4d10e8a2","bids(uint256,address)":"3f1ffcec","endAuction(uint256)":"b9a2de3a","getVersion()":"0d8e6e2c","initialize(address)":"c4d66de8","start(address,uint256,address,uint256,uint256,address)":"baac642b"},"id":3}