{
  "_format": "hh3-artifact-1",
  "contractName": "MyNFTAuction",
  "sourceName": "contracts/MyNFTAuction.sol",
  "abi": [
    {
      "inputs": [],
      "stateMutability": "nonpayable",
      "type": "constructor"
    },
    {
      "anonymous": false,
      "inputs": [
        {
          "indexed": false,
          "internalType": "address",
          "name": "previousAdmin",
          "type": "address"
        },
        {
          "indexed": false,
          "internalType": "address",
          "name": "newAdmin",
          "type": "address"
        }
      ],
      "name": "AdminChanged",
      "type": "event"
    },
    {
      "anonymous": false,
      "inputs": [
        {
          "indexed": true,
          "internalType": "address",
          "name": "seller",
          "type": "address"
        },
        {
          "indexed": true,
          "internalType": "address",
          "name": "nftContract",
          "type": "address"
        },
        {
          "indexed": false,
          "internalType": "uint256",
          "name": "startTime",
          "type": "uint256"
        },
        {
          "indexed": false,
          "internalType": "uint256",
          "name": "duration",
          "type": "uint256"
        },
        {
          "indexed": false,
          "internalType": "uint256",
          "name": "startPrice",
          "type": "uint256"
        },
        {
          "indexed": false,
          "internalType": "uint256",
          "name": "tokenId",
          "type": "uint256"
        },
        {
          "indexed": false,
          "internalType": "address",
          "name": "payToken",
          "type": "address"
        },
        {
          "indexed": false,
          "internalType": "uint256",
          "name": "auctionId",
          "type": "uint256"
        }
      ],
      "name": "AuctionCreated",
      "type": "event"
    },
    {
      "anonymous": false,
      "inputs": [
        {
          "indexed": true,
          "internalType": "address",
          "name": "winner",
          "type": "address"
        },
        {
          "indexed": true,
          "internalType": "address",
          "name": "nftContract",
          "type": "address"
        },
        {
          "indexed": false,
          "internalType": "uint256",
          "name": "tokenId",
          "type": "uint256"
        },
        {
          "indexed": false,
          "internalType": "uint256",
          "name": "amount",
          "type": "uint256"
        },
        {
          "indexed": false,
          "internalType": "address",
          "name": "payToken",
          "type": "address"
        }
      ],
      "name": "AuctionEnded",
      "type": "event"
    },
    {
      "anonymous": false,
      "inputs": [
        {
          "indexed": true,
          "internalType": "address",
          "name": "beacon",
          "type": "address"
        }
      ],
      "name": "BeaconUpgraded",
      "type": "event"
    },
    {
      "anonymous": false,
      "inputs": [
        {
          "indexed": true,
          "internalType": "address",
          "name": "bidder",
          "type": "address"
        },
        {
          "indexed": true,
          "internalType": "address",
          "name": "nftContract",
          "type": "address"
        },
        {
          "indexed": false,
          "internalType": "uint256",
          "name": "tokenId",
          "type": "uint256"
        },
        {
          "indexed": false,
          "internalType": "uint256",
          "name": "bid",
          "type": "uint256"
        },
        {
          "indexed": false,
          "internalType": "address",
          "name": "payToken",
          "type": "address"
        }
      ],
      "name": "BidPlaced",
      "type": "event"
    },
    {
      "anonymous": false,
      "inputs": [
        {
          "indexed": false,
          "internalType": "uint8",
          "name": "version",
          "type": "uint8"
        }
      ],
      "name": "Initialized",
      "type": "event"
    },
    {
      "anonymous": false,
      "inputs": [
        {
          "indexed": true,
          "internalType": "address",
          "name": "previousOwner",
          "type": "address"
        },
        {
          "indexed": true,
          "internalType": "address",
          "name": "newOwner",
          "type": "address"
        }
      ],
      "name": "OwnershipTransferred",
      "type": "event"
    },
    {
      "anonymous": false,
      "inputs": [
        {
          "indexed": true,
          "internalType": "address",
          "name": "implementation",
          "type": "address"
        }
      ],
      "name": "Upgraded",
      "type": "event"
    },
    {
      "inputs": [
        {
          "internalType": "address",
          "name": "_payToken",
          "type": "address"
        },
        {
          "internalType": "uint256",
          "name": "_amount",
          "type": "uint256"
        }
      ],
      "name": "buy",
      "outputs": [],
      "stateMutability": "payable",
      "type": "function"
    },
    {
      "inputs": [],
      "name": "endAuction",
      "outputs": [],
      "stateMutability": "nonpayable",
      "type": "function"
    },
    {
      "inputs": [
        {
          "internalType": "uint256",
          "name": "ethAmount",
          "type": "uint256"
        }
      ],
      "name": "ethToUSD",
      "outputs": [
        {
          "internalType": "uint256",
          "name": "",
          "type": "uint256"
        }
      ],
      "stateMutability": "view",
      "type": "function"
    },
    {
      "inputs": [
        {
          "internalType": "uint256",
          "name": "auctionId",
          "type": "uint256"
        }
      ],
      "name": "getAuction",
      "outputs": [
        {
          "internalType": "address",
          "name": "seller",
          "type": "address"
        },
        {
          "internalType": "address",
          "name": "nftAddress",
          "type": "address"
        },
        {
          "internalType": "uint256",
          "name": "tokenId",
          "type": "uint256"
        },
        {
          "internalType": "uint256",
          "name": "currentPrice",
          "type": "uint256"
        },
        {
          "internalType": "uint256",
          "name": "currentPriceUSD",
          "type": "uint256"
        },
        {
          "internalType": "uint256",
          "name": "startTime",
          "type": "uint256"
        },
        {
          "internalType": "uint256",
          "name": "endTime",
          "type": "uint256"
        },
        {
          "internalType": "address",
          "name": "highestBidder",
          "type": "address"
        },
        {
          "internalType": "bool",
          "name": "ended",
          "type": "bool"
        }
      ],
      "stateMutability": "view",
      "type": "function"
    },
    {
      "inputs": [],
      "name": "getETHPrice",
      "outputs": [
        {
          "internalType": "int256",
          "name": "",
          "type": "int256"
        }
      ],
      "stateMutability": "view",
      "type": "function"
    },
    {
      "inputs": [],
      "name": "getVersion",
      "outputs": [
        {
          "internalType": "string",
          "name": "",
          "type": "string"
        }
      ],
      "stateMutability": "pure",
      "type": "function"
    },
    {
      "inputs": [],
      "name": "initialize",
      "outputs": [],
      "stateMutability": "nonpayable",
      "type": "function"
    },
    {
      "inputs": [
        {
          "internalType": "address",
          "name": "operator",
          "type": "address"
        },
        {
          "internalType": "address",
          "name": "from",
          "type": "address"
        },
        {
          "internalType": "uint256",
          "name": "tokenId",
          "type": "uint256"
        },
        {
          "internalType": "bytes",
          "name": "data",
          "type": "bytes"
        }
      ],
      "name": "onERC721Received",
      "outputs": [
        {
          "internalType": "bytes4",
          "name": "",
          "type": "bytes4"
        }
      ],
      "stateMutability": "pure",
      "type": "function"
    },
    {
      "inputs": [],
      "name": "owner",
      "outputs": [
        {
          "internalType": "address",
          "name": "",
          "type": "address"
        }
      ],
      "stateMutability": "view",
      "type": "function"
    },
    {
      "inputs": [],
      "name": "proxiableUUID",
      "outputs": [
        {
          "internalType": "bytes32",
          "name": "",
          "type": "bytes32"
        }
      ],
      "stateMutability": "view",
      "type": "function"
    },
    {
      "inputs": [],
      "name": "renounceOwnership",
      "outputs": [],
      "stateMutability": "nonpayable",
      "type": "function"
    },
    {
      "inputs": [
        {
          "internalType": "address",
          "name": "_priceFeed",
          "type": "address"
        }
      ],
      "name": "setPriceFeed",
      "outputs": [],
      "stateMutability": "nonpayable",
      "type": "function"
    },
    {
      "inputs": [
        {
          "internalType": "address",
          "name": "_seller",
          "type": "address"
        },
        {
          "internalType": "address",
          "name": "_nftContract",
          "type": "address"
        },
        {
          "internalType": "uint256",
          "name": "_tokenId",
          "type": "uint256"
        },
        {
          "internalType": "uint256",
          "name": "_startPrice",
          "type": "uint256"
        },
        {
          "internalType": "uint256",
          "name": "_duration",
          "type": "uint256"
        },
        {
          "internalType": "address",
          "name": "_payToken",
          "type": "address"
        },
        {
          "internalType": "uint256",
          "name": "_auctionId",
          "type": "uint256"
        }
      ],
      "name": "start",
      "outputs": [],
      "stateMutability": "nonpayable",
      "type": "function"
    },
    {
      "inputs": [
        {
          "internalType": "address",
          "name": "newOwner",
          "type": "address"
        }
      ],
      "name": "transferOwnership",
      "outputs": [],
      "stateMutability": "nonpayable",
      "type": "function"
    },
    {
      "inputs": [
        {
          "internalType": "address",
          "name": "newImplementation",
          "type": "address"
        }
      ],
      "name": "upgradeTo",
      "outputs": [],
      "stateMutability": "nonpayable",
      "type": "function"
    },
    {
      "inputs": [
        {
          "internalType": "address",
          "name": "newImplementation",
          "type": "address"
        },
        {
          "internalType": "bytes",
          "name": "data",
          "type": "bytes"
        }
      ],
      "name": "upgradeToAndCall",
      "outputs": [],
      "stateMutability": "payable",
      "type": "function"
    },
    {
      "stateMutability": "payable",
      "type": "receive"
    }
  ],
  "bytecode": "0x60a0604052306080523480156012575f5ffd5b506080516125076100475f395f81816103d501528181610415015281816104b2015281816104f2015261058301526125075ff3fe6080604052600436106100f2575f3560e01c806378bd793511610087578063cce7ec1311610057578063cce7ec13146102ef578063ccf918a114610302578063f2fde38b14610321578063fe67a54b14610340575f5ffd5b806378bd79351461022e5780638129fc1c146102a05780638da5cb5b146102b4578063a607a8d9146102db575f5ffd5b80634f1ef286116100c25780634f1ef286146101d457806352d1902d146101e7578063715018a6146101fb578063724e78da1461020f575f5ffd5b80630d8e6e2c146100fd578063150b7a0214610142578063196e609d146101865780633659cfe6146101b3575f5ffd5b366100f957005b5f5ffd5b348015610108575f5ffd5b50604080518082018252600e81526d4d794e465441756374696f6e563160901b602082015290516101399190611e98565b60405180910390f35b34801561014d575f5ffd5b5061016d61015c366004611ee1565b630a85bd0160e11b95945050505050565b6040516001600160e01b03199091168152602001610139565b348015610191575f5ffd5b506101a56101a0366004611f7a565b610354565b604051908152602001610139565b3480156101be575f5ffd5b506101d26101cd366004611f91565b6103cb565b005b6101d26101e2366004611fc0565b6104a8565b3480156101f2575f5ffd5b506101a5610577565b348015610206575f5ffd5b506101d2610628565b34801561021a575f5ffd5b506101d2610229366004611f91565b61063b565b348015610239575f5ffd5b5061024d610248366004611f7a565b610666565b604080516001600160a01b039a8b168152988a1660208a01528801969096526060870194909452608086019290925260a085015260c084015290921660e082015290151561010082015261012001610139565b3480156102ab575f5ffd5b506101d26106cf565b3480156102bf575f5ffd5b506033546040516001600160a01b039091168152602001610139565b3480156102e6575f5ffd5b506101a56107e9565b6101d26102fd366004612086565b61086b565b34801561030d575f5ffd5b506101d261031c3660046120b0565b610cf9565b34801561032c575f5ffd5b506101d261033b366004611f91565b6111cd565b34801561034b575f5ffd5b506101d2611243565b5f5f61035e6107e9565b90505f81136103a85760405162461bcd60e51b8152602060048201526011602482015270496e76616c69642045544820707269636560781b60448201526064015b60405180910390fd5b662386f26fc100006103ba8483612132565b6103c49190612149565b9392505050565b6001600160a01b037f00000000000000000000000000000000000000000000000000000000000000001630036104135760405162461bcd60e51b815260040161039f90612168565b7f00000000000000000000000000000000000000000000000000000000000000006001600160a01b031661045b5f51602061248b5f395f51905f52546001600160a01b031690565b6001600160a01b0316146104815760405162461bcd60e51b815260040161039f906121b4565b61048a81611424565b604080515f808252602082019092526104a59183919061142c565b50565b6001600160a01b037f00000000000000000000000000000000000000000000000000000000000000001630036104f05760405162461bcd60e51b815260040161039f90612168565b7f00000000000000000000000000000000000000000000000000000000000000006001600160a01b03166105385f51602061248b5f395f51905f52546001600160a01b031690565b6001600160a01b03161461055e5760405162461bcd60e51b815260040161039f906121b4565b61056782611424565b6105738282600161142c565b5050565b5f306001600160a01b037f000000000000000000000000000000000000000000000000000000000000000016146106165760405162461bcd60e51b815260206004820152603860248201527f555550535570677261646561626c653a206d757374206e6f742062652063616c60448201527f6c6564207468726f7567682064656c656761746563616c6c0000000000000000606482015260840161039f565b505f51602061248b5f395f51905f5290565b61063061159b565b6106395f6115f5565b565b61064361159b565b61010580546001600160a01b0319166001600160a01b0392909216919091179055565b60fb5460fc5460fd5460ff54610100546001600160a01b0394851694909316925f91829182908190819061069a9085612200565b61010154610103549a9c999b50979996989597949690956001600160a01b0390951694600160a01b90910460ff169350915050565b5f54610100900460ff16158080156106ed57505f54600160ff909116105b806107065750303b15801561070657505f5460ff166001145b6107695760405162461bcd60e51b815260206004820152602e60248201527f496e697469616c697a61626c653a20636f6e747261637420697320616c72656160448201526d191e481a5b9a5d1a585b1a5e995960921b606482015260840161039f565b5f805460ff19166001179055801561078a575f805461ff0019166101001790555b610792611646565b61079a611674565b6107a261169a565b80156104a5575f805461ff0019169055604051600181527f7f26b83ff96e1f2b6a682f133852f6798a09c465da95921460cefb38474024989060200160405180910390a150565b5f5f6101055f9054906101000a90046001600160a01b03166001600160a01b031663feaf968c6040518163ffffffff1660e01b815260040160a060405180830381865afa15801561083c573d5f5f3e3d5ffd5b505050506040513d601f19601f820116820180604052508101906108609190612231565b509195945050505050565b60fb546001600160a01b031633036108b95760405162461bcd60e51b815260206004820152601160248201527014d95b1b195c8818d85b9b9bdd08189a59607a1b604482015260640161039f565b60ff546108fd5760405162461bcd60e51b815260206004820152601260248201527141756374696f6e206e6f742065786973747360701b604482015260640161039f565b61010354600160a01b900460ff16156109285760405162461bcd60e51b815260040161039f9061227f565b6101005460ff546109399190612200565b42106109575760405162461bcd60e51b815260040161039f9061227f565b6001600160a01b0382166109ac578034146109a75760405162461bcd60e51b815260206004820152601060248201526f125b9cdd59999a58da595b9d08189a5960821b604482015260640161039f565b610ab6565b34156109fa5760405162461bcd60e51b815260206004820152601b60248201527f455243323020626964206e656564206e6f742073656e64204554480000000000604482015260640161039f565b604051636eb1769f60e11b815233600482015230602482015281906001600160a01b0384169063dd62ed3e90604401602060405180830381865afa158015610a44573d5f5f3e3d5ffd5b505050506040513d601f19601f82011682018060405250810190610a6891906122a6565b1015610ab65760405162461bcd60e51b815260206004820152601a60248201527f455243323020616c6c6f77616e6365206e6f7420656e6f756768000000000000604482015260640161039f565b5f8111610afb5760405162461bcd60e51b8152602060048201526013602482015272062696420616d6f756e74206e656564203e203606c1b604482015260640161039f565b5f610b046116c8565b90505f610b1184846118c4565b9050818111610b625760405162461bcd60e51b815260206004820152601c60248201527f62696420616d6f756e74206e656564203e206869676865737442696400000000604482015260640161039f565b6001600160a01b03841615610c2c576040516323b872dd60e01b81525f906001600160a01b038616906323b872dd90610ba3903390309089906004016122bd565b6020604051808303815f875af1158015610bbf573d5f5f3e3d5ffd5b505050506040513d601f19601f82011682018060405250810190610be391906122e1565b905080610c2a5760405162461bcd60e51b8152602060048201526015602482015274115490cc8c081d1c985b9cd9995c8819985a5b1959605a1b604482015260640161039f565b505b610101546001600160a01b031615801590610c4957506101025415155b15610c7157610101546101035461010254610c71926001600160a01b03908116921690611aa5565b6101018054336001600160a01b0319918216811790925561010285905561010380549091166001600160a01b0387811691821790925560fc5460fd54604080519182526020820189905281019290925290911691907f033662337362bded9d8e20233729c8d9b0cd2e517eb37f12eafa103a5ac212bf9060600160405180910390a350505050565b6001600160a01b038716610d4f5760405162461bcd60e51b815260206004820152601e60248201527f53656c6c657220616464726573732063616e206e6f74206265207a65726f0000604482015260640161039f565b6001600160a01b038616610db15760405162461bcd60e51b8152602060048201526024808201527f4e465420636f6e747261637420616464726573732063616e206e6f74206265206044820152637a65726f60e01b606482015260840161039f565b5f8311610df45760405162461bcd60e51b815260206004820152601160248201527006475726174696f6e206e656564203e203607c1b604482015260640161039f565b5f8411610e515760405162461bcd60e51b815260206004820152602560248201527f5374617274207072696365206d7573742062652067726561746572207468616e604482015264207a65726f60d81b606482015260840161039f565b5f8511610e935760405162461bcd60e51b815260206004820152601060248201526f0746f6b656e4964206e656564203e20360841b604482015260640161039f565b6040516331a9108f60e11b81526004810186905286906001600160a01b038981169190831690636352211e90602401602060405180830381865afa158015610edd573d5f5f3e3d5ffd5b505050506040513d601f19601f82011682018060405250810190610f019190612300565b6001600160a01b031614610f615760405162461bcd60e51b815260206004820152602160248201527f596f7520617265206e6f7420746865206f776e6572206f662074686973204e466044820152601560fa1b606482015260840161039f565b6040516323b872dd60e01b81526001600160a01b038216906323b872dd90610f9190339030908b906004016122bd565b5f604051808303815f87803b158015610fa8575f5ffd5b505af1158015610fba573d5f5f3e3d5ffd5b50505050604051806101600160405280336001600160a01b03168152602001886001600160a01b031681526020018781526020018681526020014281526020018581526020015f6001600160a01b031681526020015f8152602001846001600160a01b031681526020015f151581526020018381525060fb5f820151815f015f6101000a8154816001600160a01b0302191690836001600160a01b031602179055506020820151816001015f6101000a8154816001600160a01b0302191690836001600160a01b0316021790555060408201518160020155606082015181600301556080820151816004015560a0820151816005015560c0820151816006015f6101000a8154816001600160a01b0302191690836001600160a01b0316021790555060e08201518160070155610100820151816008015f6101000a8154816001600160a01b0302191690836001600160a01b031602179055506101208201518160080160146101000a81548160ff0219169083151502179055506101408201518160090155905050866001600160a01b0316886001600160a01b03167f6093e8428d5d59dbc860cbe199c1c1260dd1fb16a52a9cb20da8966a5ed1cbf14287898b89896040516111bb969594939291909586526020860194909452604085019290925260608401526001600160a01b0316608083015260a082015260c00190565b60405180910390a35050505050505050565b6111d561159b565b6001600160a01b03811661123a5760405162461bcd60e51b815260206004820152602660248201527f4f776e61626c653a206e6577206f776e657220697320746865207a65726f206160448201526564647265737360d01b606482015260840161039f565b6104a5816115f5565b61010354600160a01b900460ff161561126e5760405162461bcd60e51b815260040161039f9061227f565b6101005460ff5461127f9190612200565b4210156112c25760405162461bcd60e51b8152602060048201526011602482015270185d58dd1a5bdb881b9bdd08195b991959607a1b604482015260640161039f565b610103805460ff60a01b1916600160a01b17905560fc54610101546001600160a01b03918216911615611359576101015460fd54604051632142170760e11b81526001600160a01b03848116936342842e0e93611327933093909216916004016122bd565b5f604051808303815f87803b15801561133e575f5ffd5b505af1158015611350573d5f5f3e3d5ffd5b505050506113be565b60fb5460fd54604051632142170760e11b81526001600160a01b03848116936342842e0e93611390933093909216916004016122bd565b5f604051808303815f87803b1580156113a7575f5ffd5b505af11580156113b9573d5f5f3e3d5ffd5b505050505b60fc546101015460fd5461010254610103546040805193845260208401929092526001600160a01b03908116838301529051938116939216917f0ff828a9486263d5c2502e38708aa01df29294e445c52c3e44ed6a827556f9079181900360600190a350565b6104a561159b565b7f4910fdfa16fed3260ed0e7147f7cc6da11a60208b5b9406d12a635614ffd91435460ff16156114645761145f83611c04565b505050565b826001600160a01b03166352d1902d6040518163ffffffff1660e01b8152600401602060405180830381865afa9250505080156114be575060408051601f3d908101601f191682019092526114bb918101906122a6565b60015b6115215760405162461bcd60e51b815260206004820152602e60248201527f45524331393637557067726164653a206e657720696d706c656d656e7461746960448201526d6f6e206973206e6f74205555505360901b606482015260840161039f565b5f51602061248b5f395f51905f52811461158f5760405162461bcd60e51b815260206004820152602960248201527f45524331393637557067726164653a20756e737570706f727465642070726f786044820152681a58589b195555525160ba1b606482015260840161039f565b5061145f838383611c9f565b6033546001600160a01b031633146106395760405162461bcd60e51b815260206004820181905260248201527f4f776e61626c653a2063616c6c6572206973206e6f7420746865206f776e6572604482015260640161039f565b603380546001600160a01b038381166001600160a01b0319831681179093556040519116919082907f8be0079c531659141344cd1fd0a4f28419497f9722a3daafe3b4186f6b6457e0905f90a35050565b5f54610100900460ff1661166c5760405162461bcd60e51b815260040161039f9061231b565b610639611cc3565b5f54610100900460ff166106395760405162461bcd60e51b815260040161039f9061231b565b5f54610100900460ff166116c05760405162461bcd60e51b815260040161039f9061231b565b610639611cf2565b610105545f906001600160a01b03166117235760405162461bcd60e51b815260206004820152601f60248201527f50726963652066656564206e6f742073657420666f7220706179546f6b656e00604482015260640161039f565b6101055460408051633fabe5a360e21b815290515f926001600160a01b03169163feaf968c9160048083019260a09291908290030181865afa15801561176b573d5f5f3e3d5ffd5b505050506040513d601f19601f8201168201806040525081019061178f9190612231565b5050509150505f81136117de5760405162461bcd60e51b8152602060048201526017602482015276125b9d985b1a59081c1c9a58d948199c9bdb4819995959604a1b604482015260640161039f565b610105546040805163313ce56760e01b8152905183925f926001600160a01b039091169163313ce567916004808201926020929091908290030181865afa15801561182b573d5f5f3e3d5ffd5b505050506040513d601f19601f8201168201806040525081019061184f9190612366565b60fe546101015460ff929092169250906001600160a01b0316156118735750610102545b610103546001600160a01b03165f036118b95761189182600c612200565b61189c90600a612469565b6118a68285612132565b6118b09190612149565b94505050505090565b61189c82600a612469565b610105545f906001600160a01b031661191f5760405162461bcd60e51b815260206004820152601f60248201527f50726963652066656564206e6f742073657420666f7220706179546f6b656e00604482015260640161039f565b6101055460408051633fabe5a360e21b815290515f926001600160a01b03169163feaf968c9160048083019260a09291908290030181865afa158015611967573d5f5f3e3d5ffd5b505050506040513d601f19601f8201168201806040525081019061198b9190612231565b5050509150505f81136119da5760405162461bcd60e51b8152602060048201526017602482015276125b9d985b1a59081c1c9a58d948199c9bdb4819995959604a1b604482015260640161039f565b610105546040805163313ce56760e01b8152905183925f926001600160a01b039091169163313ce567916004808201926020929091908290030181865afa158015611a27573d5f5f3e3d5ffd5b505050506040513d601f19601f82011682018060405250810190611a4b9190612366565b60ff1690506001600160a01b0386165f03611a9457611a6b81600c612200565b611a7690600a612469565b611a808684612132565b611a8a9190612149565b9350505050611a9f565b611a7681600a612469565b92915050565b6001600160a01b038216611b4c575f836001600160a01b0316826040515f6040518083038185875af1925050503d805f8114611afc576040519150601f19603f3d011682016040523d82523d5f602084013e611b01565b606091505b5050905080611b465760405162461bcd60e51b8152602060048201526011602482015270115512081c99599d5b990819985a5b1959607a1b604482015260640161039f565b50505050565b60405163a9059cbb60e01b81526001600160a01b038481166004830152602482018390525f919084169063a9059cbb906044016020604051808303815f875af1158015611b9b573d5f5f3e3d5ffd5b505050506040513d601f19601f82011682018060405250810190611bbf91906122e1565b905080611b465760405162461bcd60e51b8152602060048201526013602482015272115490cc8c081c99599d5b990819985a5b1959606a1b604482015260640161039f565b6001600160a01b0381163b611c715760405162461bcd60e51b815260206004820152602d60248201527f455243313936373a206e657720696d706c656d656e746174696f6e206973206e60448201526c1bdd08184818dbdb9d1c9858dd609a1b606482015260840161039f565b5f51602061248b5f395f51905f5280546001600160a01b0319166001600160a01b0392909216919091179055565b611ca883611d1f565b5f82511180611cb45750805b1561145f57611b468383611d5e565b5f54610100900460ff16611ce95760405162461bcd60e51b815260040161039f9061231b565b610639336115f5565b5f54610100900460ff16611d185760405162461bcd60e51b815260040161039f9061231b565b600160c955565b611d2881611c04565b6040516001600160a01b038216907fbc7cd75a20ee27fd9adebab32041f755214dbc6bffa90cc0225b39da2e5c2d3b905f90a250565b60606103c483836040518060600160405280602781526020016124ab6027913960605f5f856001600160a01b031685604051611d9a9190612474565b5f60405180830381855af49150503d805f8114611dd2576040519150601f19603f3d011682016040523d82523d5f602084013e611dd7565b606091505b5091509150611de886838387611df2565b9695505050505050565b60608315611e605782515f03611e59576001600160a01b0385163b611e595760405162461bcd60e51b815260206004820152601d60248201527f416464726573733a2063616c6c20746f206e6f6e2d636f6e7472616374000000604482015260640161039f565b5081611e6a565b611e6a8383611e72565b949350505050565b815115611e825781518083602001fd5b8060405162461bcd60e51b815260040161039f91905b602081525f82518060208401528060208501604085015e5f604082850101526040601f19601f83011684010191505092915050565b6001600160a01b03811681146104a5575f5ffd5b5f5f5f5f5f60808688031215611ef5575f5ffd5b8535611f0081611ecd565b94506020860135611f1081611ecd565b935060408601359250606086013567ffffffffffffffff811115611f32575f5ffd5b8601601f81018813611f42575f5ffd5b803567ffffffffffffffff811115611f58575f5ffd5b886020828401011115611f69575f5ffd5b959894975092955050506020019190565b5f60208284031215611f8a575f5ffd5b5035919050565b5f60208284031215611fa1575f5ffd5b81356103c481611ecd565b634e487b7160e01b5f52604160045260245ffd5b5f5f60408385031215611fd1575f5ffd5b8235611fdc81611ecd565b9150602083013567ffffffffffffffff811115611ff7575f5ffd5b8301601f81018513612007575f5ffd5b803567ffffffffffffffff81111561202157612021611fac565b604051601f8201601f19908116603f0116810167ffffffffffffffff8111828210171561205057612050611fac565b604052818152828201602001871015612067575f5ffd5b816020840160208301375f602083830101528093505050509250929050565b5f5f60408385031215612097575f5ffd5b82356120a281611ecd565b946020939093013593505050565b5f5f5f5f5f5f5f60e0888a0312156120c6575f5ffd5b87356120d181611ecd565b965060208801356120e181611ecd565b955060408801359450606088013593506080880135925060a088013561210681611ecd565b96999598509396929591949193505060c09091013590565b634e487b7160e01b5f52601160045260245ffd5b8082028115828204841417611a9f57611a9f61211e565b5f8261216357634e487b7160e01b5f52601260045260245ffd5b500490565b6020808252602c908201527f46756e6374696f6e206d7573742062652063616c6c6564207468726f7567682060408201526b19195b1959d85d1958d85b1b60a21b606082015260800190565b6020808252602c908201527f46756e6374696f6e206d7573742062652063616c6c6564207468726f7567682060408201526b6163746976652070726f787960a01b606082015260800190565b80820180821115611a9f57611a9f61211e565b805169ffffffffffffffffffff8116811461222c575f5ffd5b919050565b5f5f5f5f5f60a08688031215612245575f5ffd5b61224e86612213565b6020870151604088015160608901519297509095509350915061227360808701612213565b90509295509295909350565b6020808252600d908201526c105d58dd1a5bdb88195b991959609a1b604082015260600190565b5f602082840312156122b6575f5ffd5b5051919050565b6001600160a01b039384168152919092166020820152604081019190915260600190565b5f602082840312156122f1575f5ffd5b815180151581146103c4575f5ffd5b5f60208284031215612310575f5ffd5b81516103c481611ecd565b6020808252602b908201527f496e697469616c697a61626c653a20636f6e7472616374206973206e6f74206960408201526a6e697469616c697a696e6760a81b606082015260800190565b5f60208284031215612376575f5ffd5b815160ff811681146103c4575f5ffd5b6001815b60018411156123c1578085048111156123a5576123a561211e565b60018416156123b357908102905b60019390931c92800261238a565b935093915050565b5f826123d757506001611a9f565b816123e357505f611a9f565b81600181146123f957600281146124035761241f565b6001915050611a9f565b60ff8411156124145761241461211e565b50506001821b611a9f565b5060208310610133831016604e8410600b8410161715612442575081810a611a9f565b61244e5f198484612386565b805f19048211156124615761246161211e565b029392505050565b5f6103c483836123c9565b5f82518060208501845e5f92019182525091905056fe360894a13ba1a3210667c828492db98dca3e2076cc3735a920a3ca505d382bbc416464726573733a206c6f772d6c6576656c2064656c65676174652063616c6c206661696c6564a264697066735822122051060d8047f015d804ef1f4f83e9a55543ca0288b29a1adffa53dc9f4cadf78a64736f6c634300081c0033",
  "linkReferences": {},
  "deployedLinkReferences": {},
  "immutableReferences": {
    "733": [
      {
        "length": 32,
        "start": 981
      },
      {
        "length": 32,
        "start": 1045
      },
      {
        "length": 32,
        "start": 1202
      },
      {
        "length": 32,
        "start": 1266
      },
      {
        "length": 32,
        "start": 1411
      }
    ]
  },
  "inputSourceName": "project/contracts/MyNFTAuction.sol",
  "buildInfoId": "solc-0_8_28-2e38e25c5f8c2a05a223218a0d31b376a58464de"
}