{"abi":[{"type":"constructor","inputs":[],"stateMutability":"nonpayable"},{"type":"receive","stateMutability":"payable"},{"type":"function","name":"auctionIdCounter","inputs":[],"outputs":[{"name":"","type":"uint256","internalType":"uint256"}],"stateMutability":"view"},{"type":"function","name":"auctions","inputs":[{"name":"","type":"uint256","internalType":"uint256"}],"outputs":[{"name":"seller","type":"address","internalType":"address"},{"name":"nftAddress","type":"address","internalType":"address"},{"name":"tokenId","type":"uint256","internalType":"uint256"},{"name":"startPrice","type":"uint256","internalType":"uint256"},{"name":"endPrice","type":"uint256","internalType":"uint256"},{"name":"startTime","type":"uint256","internalType":"uint256"},{"name":"duration","type":"uint256","internalType":"uint256"},{"name":"highestBidder","type":"address","internalType":"address"},{"name":"soldPrice","type":"uint256","internalType":"uint256"},{"name":"ended","type":"bool","internalType":"bool"}],"stateMutability":"view"},{"type":"function","name":"buy","inputs":[{"name":"auctionId","type":"uint256","internalType":"uint256"}],"outputs":[],"stateMutability":"payable"},{"type":"function","name":"cancelAuction","inputs":[{"name":"auctionId","type":"uint256","internalType":"uint256"}],"outputs":[],"stateMutability":"nonpayable"},{"type":"function","name":"createAuction","inputs":[{"name":"nftAddress","type":"address","internalType":"address"},{"name":"tokenId","type":"uint256","internalType":"uint256"},{"name":"startPrice","type":"uint256","internalType":"uint256"},{"name":"endPrice","type":"uint256","internalType":"uint256"},{"name":"duration","type":"uint256","internalType":"uint256"}],"outputs":[],"stateMutability":"nonpayable"},{"type":"function","name":"ethToUSD","inputs":[{"name":"ethAmount","type":"uint256","internalType":"uint256"}],"outputs":[{"name":"","type":"uint256","internalType":"uint256"}],"stateMutability":"view"},{"type":"function","name":"getAuction","inputs":[{"name":"auctionId","type":"uint256","internalType":"uint256"}],"outputs":[{"name":"seller","type":"address","internalType":"address"},{"name":"nftAddress","type":"address","internalType":"address"},{"name":"tokenId","type":"uint256","internalType":"uint256"},{"name":"currentPrice","type":"uint256","internalType":"uint256"},{"name":"currentPriceUSD","type":"uint256","internalType":"uint256"},{"name":"startTime","type":"uint256","internalType":"uint256"},{"name":"endTime","type":"uint256","internalType":"uint256"},{"name":"highestBidder","type":"address","internalType":"address"},{"name":"ended","type":"bool","internalType":"bool"}],"stateMutability":"view"},{"type":"function","name":"getCurrentPrice","inputs":[{"name":"auctionId","type":"uint256","internalType":"uint256"}],"outputs":[{"name":"","type":"uint256","internalType":"uint256"}],"stateMutability":"view"},{"type":"function","name":"getCurrentPriceUSD","inputs":[{"name":"auctionId","type":"uint256","internalType":"uint256"}],"outputs":[{"name":"","type":"uint256","internalType":"uint256"}],"stateMutability":"view"},{"type":"function","name":"getETHPrice","inputs":[],"outputs":[{"name":"","type":"int256","internalType":"int256"}],"stateMutability":"view"},{"type":"function","name":"initialize","inputs":[{"name":"_priceFeed","type":"address","internalType":"address"}],"outputs":[],"stateMutability":"nonpayable"},{"type":"function","name":"owner","inputs":[],"outputs":[{"name":"","type":"address","internalType":"address"}],"stateMutability":"view"},{"type":"function","name":"proxiableUUID","inputs":[],"outputs":[{"name":"","type":"bytes32","internalType":"bytes32"}],"stateMutability":"view"},{"type":"function","name":"renounceOwnership","inputs":[],"outputs":[],"stateMutability":"nonpayable"},{"type":"function","name":"settleAuction","inputs":[{"name":"auctionId","type":"uint256","internalType":"uint256"}],"outputs":[],"stateMutability":"nonpayable"},{"type":"function","name":"transferOwnership","inputs":[{"name":"newOwner","type":"address","internalType":"address"}],"outputs":[],"stateMutability":"nonpayable"},{"type":"function","name":"upgradeTo","inputs":[{"name":"newImplementation","type":"address","internalType":"address"}],"outputs":[],"stateMutability":"nonpayable"},{"type":"function","name":"upgradeToAndCall","inputs":[{"name":"newImplementation","type":"address","internalType":"address"},{"name":"data","type":"bytes","internalType":"bytes"}],"outputs":[],"stateMutability":"payable"},{"type":"event","name":"AdminChanged","inputs":[{"name":"previousAdmin","type":"address","indexed":false,"internalType":"address"},{"name":"newAdmin","type":"address","indexed":false,"internalType":"address"}],"anonymous":false},{"type":"event","name":"AuctionCreated","inputs":[{"name":"auctionId","type":"uint256","indexed":true,"internalType":"uint256"},{"name":"seller","type":"address","indexed":true,"internalType":"address"},{"name":"nftAddress","type":"address","indexed":true,"internalType":"address"},{"name":"tokenId","type":"uint256","indexed":false,"internalType":"uint256"},{"name":"startPrice","type":"uint256","indexed":false,"internalType":"uint256"},{"name":"endPrice","type":"uint256","indexed":false,"internalType":"uint256"},{"name":"startTime","type":"uint256","indexed":false,"internalType":"uint256"},{"name":"duration","type":"uint256","indexed":false,"internalType":"uint256"}],"anonymous":false},{"type":"event","name":"AuctionEnded","inputs":[{"name":"auctionId","type":"uint256","indexed":true,"internalType":"uint256"},{"name":"winner","type":"address","indexed":true,"internalType":"address"},{"name":"price","type":"uint256","indexed":false,"internalType":"uint256"}],"anonymous":false},{"type":"event","name":"BeaconUpgraded","inputs":[{"name":"beacon","type":"address","indexed":true,"internalType":"address"}],"anonymous":false},{"type":"event","name":"BidPlaced","inputs":[{"name":"auctionId","type":"uint256","indexed":true,"internalType":"uint256"},{"name":"bidder","type":"address","indexed":true,"internalType":"address"},{"name":"price","type":"uint256","indexed":false,"internalType":"uint256"}],"anonymous":false},{"type":"event","name":"Initialized","inputs":[{"name":"version","type":"uint8","indexed":false,"internalType":"uint8"}],"anonymous":false},{"type":"event","name":"OwnershipTransferred","inputs":[{"name":"previousOwner","type":"address","indexed":true,"internalType":"address"},{"name":"newOwner","type":"address","indexed":true,"internalType":"address"}],"anonymous":false},{"type":"event","name":"Upgraded","inputs":[{"name":"implementation","type":"address","indexed":true,"internalType":"address"}],"anonymous":false}],"bytecode":{"object":"0x60a06040523073ffffffffffffffffffffffffffffffffffffffff1660809073ffffffffffffffffffffffffffffffffffffffff16815250348015610042575f5ffd5b5061005161005660201b60201c565b6101e6565b5f60019054906101000a900460ff16156100a5576040517f08c379a000000000000000000000000000000000000000000000000000000000815260040161009c90610194565b60405180910390fd5b60ff80165f5f9054906101000a900460ff1660ff16146101125760ff5f5f6101000a81548160ff021916908360ff1602179055507f7f26b83ff96e1f2b6a682f133852f6798a09c465da95921460cefb384740249860ff60405161010991906101cd565b60405180910390a15b565b5f82825260208201905092915050565b7f496e697469616c697a61626c653a20636f6e747261637420697320696e6974695f8201527f616c697a696e6700000000000000000000000000000000000000000000000000602082015250565b5f61017e602783610114565b915061018982610124565b604082019050919050565b5f6020820190508181035f8301526101ab81610172565b9050919050565b5f60ff82169050919050565b6101c7816101b2565b82525050565b5f6020820190506101e05f8301846101be565b92915050565b6080516138fb61021a5f395f81816107bf0152818161084d01528181610945015281816109d30152610a8201526138fb5ff3fe60806040526004361061010c575f3560e01c80638da5cb5b11610094578063c4d66de811610063578063c4d66de814610368578063c55d0f5614610390578063d96a094a146103cc578063de0794ef146103e8578063f2fde38b1461041257610113565b80638da5cb5b146102c4578063961c9ae4146102ee57806396b5a75514610316578063a607a8d91461033e57610113565b806352d1902d116100db57806352d1902d146101bf578063571a26a0146101e9578063715018a61461022e57806378bd7935146102445780637d9f9dc71461028857610113565b8063196e609d146101175780632e993611146101535780633659cfe61461017b5780634f1ef286146101a357610113565b3661011357005b5f5ffd5b348015610122575f5ffd5b5061013d60048036038101906101389190612497565b61043a565b60405161014a91906124d1565b60405180910390f35b34801561015e575f5ffd5b5061017960048036038101906101749190612497565b6104ab565b005b348015610186575f5ffd5b506101a1600480360381019061019c9190612544565b6107bd565b005b6101bd60048036038101906101b891906126ab565b610943565b005b3480156101ca575f5ffd5b506101d3610a7f565b6040516101e0919061271d565b60405180910390f35b3480156101f4575f5ffd5b5061020f600480360381019061020a9190612497565b610b36565b6040516102259a9998979695949392919061275f565b60405180910390f35b348015610239575f5ffd5b50610242610bef565b005b34801561024f575f5ffd5b5061026a60048036038101906102659190612497565b610c02565b60405161027f999897969594939291906127f9565b60405180910390f35b348015610293575f5ffd5b506102ae60048036038101906102a99190612497565b610de3565b6040516102bb91906124d1565b60405180910390f35b3480156102cf575f5ffd5b506102d8610e01565b6040516102e59190612884565b60405180910390f35b3480156102f9575f5ffd5b50610314600480360381019061030f919061289d565b610e29565b005b348015610321575f5ffd5b5061033c60048036038101906103379190612497565b61125f565b005b348015610349575f5ffd5b506103526114bd565b60405161035f919061292c565b60405180910390f35b348015610373575f5ffd5b5061038e60048036038101906103899190612544565b61155a565b005b34801561039b575f5ffd5b506103b660048036038101906103b19190612497565b6116e5565b6040516103c391906124d1565b60405180910390f35b6103e660048036038101906103e19190612497565b61192b565b005b3480156103f3575f5ffd5b506103fc611cdd565b60405161040991906124d1565b60405180910390f35b34801561041d575f5ffd5b5061043860048036038101906104339190612544565b611ce3565b005b5f5f6104446114bd565b90505f8113610488576040517f08c379a000000000000000000000000000000000000000000000000000000000815260040161047f9061299f565b60405180910390fd5b6305f5e100838261049991906129ea565b6104a39190612a58565b915050919050565b5f60c95f8381526020019081526020015f209050806009015f9054906101000a900460ff1615610510576040517f08c379a000000000000000000000000000000000000000000000000000000000815260040161050790612ad2565b60405180910390fd5b806006015481600501546105249190612af0565b421015610566576040517f08c379a000000000000000000000000000000000000000000000000000000000815260040161055d90612b6d565b60405180910390fd5b6001816009015f6101000a81548160ff0219169083151502179055505f73ffffffffffffffffffffffffffffffffffffffff16816007015f9054906101000a900473ffffffffffffffffffffffffffffffffffffffff1673ffffffffffffffffffffffffffffffffffffffff1614610700575f816001015f9054906101000a900473ffffffffffffffffffffffffffffffffffffffff1690508073ffffffffffffffffffffffffffffffffffffffff166323b872dd30846007015f9054906101000a900473ffffffffffffffffffffffffffffffffffffffff1685600201546040518463ffffffff1660e01b815260040161066393929190612b8b565b5f604051808303815f87803b15801561067a575f5ffd5b505af115801561068c573d5f5f3e3d5ffd5b50505050815f015f9054906101000a900473ffffffffffffffffffffffffffffffffffffffff1673ffffffffffffffffffffffffffffffffffffffff166108fc836008015490811502906040515f60405180830381858888f193505050501580156106f9573d5f5f3e3d5ffd5b50506107b9565b5f816001015f9054906101000a900473ffffffffffffffffffffffffffffffffffffffff1690508073ffffffffffffffffffffffffffffffffffffffff166323b872dd30845f015f9054906101000a900473ffffffffffffffffffffffffffffffffffffffff1685600201546040518463ffffffff1660e01b815260040161078a93929190612b8b565b5f604051808303815f87803b1580156107a1575f5ffd5b505af11580156107b3573d5f5f3e3d5ffd5b50505050505b5050565b7f000000000000000000000000000000000000000000000000000000000000000073ffffffffffffffffffffffffffffffffffffffff163073ffffffffffffffffffffffffffffffffffffffff160361084b576040517f08c379a000000000000000000000000000000000000000000000000000000000815260040161084290612c30565b60405180910390fd5b7f000000000000000000000000000000000000000000000000000000000000000073ffffffffffffffffffffffffffffffffffffffff1661088a611d65565b73ffffffffffffffffffffffffffffffffffffffff16146108e0576040517f08c379a00000000000000000000000000000000000000000000000000000000081526004016108d790612cbe565b60405180910390fd5b6108e981611db8565b610940815f67ffffffffffffffff81111561090757610906612587565b5b6040519080825280601f01601f1916602001820160405280156109395781602001600182028036833780820191505090505b505f611dc3565b50565b7f000000000000000000000000000000000000000000000000000000000000000073ffffffffffffffffffffffffffffffffffffffff163073ffffffffffffffffffffffffffffffffffffffff16036109d1576040517f08c379a00000000000000000000000000000000000000000000000000000000081526004016109c890612c30565b60405180910390fd5b7f000000000000000000000000000000000000000000000000000000000000000073ffffffffffffffffffffffffffffffffffffffff16610a10611d65565b73ffffffffffffffffffffffffffffffffffffffff1614610a66576040517f08c379a0000000000000000000000000000000000000000000000000000000008152600401610a5d90612cbe565b60405180910390fd5b610a6f82611db8565b610a7b82826001611dc3565b5050565b5f7f000000000000000000000000000000000000000000000000000000000000000073ffffffffffffffffffffffffffffffffffffffff163073ffffffffffffffffffffffffffffffffffffffff1614610b0e576040517f08c379a0000000000000000000000000000000000000000000000000000000008152600401610b0590612d4c565b60405180910390fd5b7f360894a13ba1a3210667c828492db98dca3e2076cc3735a920a3ca505d382bbc5f1b905090565b60c9602052805f5260405f205f91509050805f015f9054906101000a900473ffffffffffffffffffffffffffffffffffffffff1690806001015f9054906101000a900473ffffffffffffffffffffffffffffffffffffffff1690806002015490806003015490806004015490806005015490806006015490806007015f9054906101000a900473ffffffffffffffffffffffffffffffffffffffff1690806008015490806009015f9054906101000a900460ff1690508a565b610bf7611f2d565b610c005f611fab565b565b5f5f5f5f5f5f5f5f5f5f60c95f8c81526020019081526020015f20604051806101400160405290815f82015f9054906101000a900473ffffffffffffffffffffffffffffffffffffffff1673ffffffffffffffffffffffffffffffffffffffff1673ffffffffffffffffffffffffffffffffffffffff168152602001600182015f9054906101000a900473ffffffffffffffffffffffffffffffffffffffff1673ffffffffffffffffffffffffffffffffffffffff1673ffffffffffffffffffffffffffffffffffffffff1681526020016002820154815260200160038201548152602001600482015481526020016005820154815260200160068201548152602001600782015f9054906101000a900473ffffffffffffffffffffffffffffffffffffffff1673ffffffffffffffffffffffffffffffffffffffff1673ffffffffffffffffffffffffffffffffffffffff16815260200160088201548152602001600982015f9054906101000a900460ff1615151515815250509050805f015199508060200151985080604001519750610d9c8b6116e5565b9650610da78b610de3565b95508060a0015194508060c001518160a00151610dc49190612af0565b93508060e0015192508061012001519150509193959799909294969850565b5f5f610dee836116e5565b9050610df98161043a565b915050919050565b5f60975f9054906101000a900473ffffffffffffffffffffffffffffffffffffffff16905090565b818311610e6b576040517f08c379a0000000000000000000000000000000000000000000000000000000008152600401610e6290612dda565b60405180910390fd5b5f8111610ead576040517f08c379a0000000000000000000000000000000000000000000000000000000008152600401610ea490612e42565b60405180910390fd5b5f8590503373ffffffffffffffffffffffffffffffffffffffff168173ffffffffffffffffffffffffffffffffffffffff16636352211e876040518263ffffffff1660e01b8152600401610f0191906124d1565b602060405180830381865afa158015610f1c573d5f5f3e3d5ffd5b505050506040513d601f19601f82011682018060405250810190610f409190612e74565b73ffffffffffffffffffffffffffffffffffffffff1614610f96576040517f08c379a0000000000000000000000000000000000000000000000000000000008152600401610f8d90612f0f565b60405180910390fd5b8073ffffffffffffffffffffffffffffffffffffffff166323b872dd3330886040518463ffffffff1660e01b8152600401610fd393929190612b8b565b5f604051808303815f87803b158015610fea575f5ffd5b505af1158015610ffc573d5f5f3e3d5ffd5b505050505f60ca54905060ca5f81548092919061101890612f2d565b91905055506040518061014001604052803373ffffffffffffffffffffffffffffffffffffffff1681526020018873ffffffffffffffffffffffffffffffffffffffff1681526020018781526020018681526020018581526020014281526020018481526020015f73ffffffffffffffffffffffffffffffffffffffff1681526020015f81526020015f151581525060c95f8381526020019081526020015f205f820151815f015f6101000a81548173ffffffffffffffffffffffffffffffffffffffff021916908373ffffffffffffffffffffffffffffffffffffffff1602179055506020820151816001015f6101000a81548173ffffffffffffffffffffffffffffffffffffffff021916908373ffffffffffffffffffffffffffffffffffffffff16021790555060408201518160020155606082015181600301556080820151816004015560a0820151816005015560c0820151816006015560e0820151816007015f6101000a81548173ffffffffffffffffffffffffffffffffffffffff021916908373ffffffffffffffffffffffffffffffffffffffff1602179055506101008201518160080155610120820151816009015f6101000a81548160ff0219169083151502179055509050508673ffffffffffffffffffffffffffffffffffffffff163373ffffffffffffffffffffffffffffffffffffffff16827fc415f0b2a44d885a1c207acb0b60c0179e4ac49da88f0e8917fb80302a9d782a898989428a60405161124e959493929190612f74565b60405180910390a450505050505050565b5f60c95f8381526020019081526020015f209050805f015f9054906101000a900473ffffffffffffffffffffffffffffffffffffffff1673ffffffffffffffffffffffffffffffffffffffff163373ffffffffffffffffffffffffffffffffffffffff1614611303576040517f08c379a00000000000000000000000000000000000000000000000000000000081526004016112fa9061300f565b60405180910390fd5b806009015f9054906101000a900460ff1615611354576040517f08c379a000000000000000000000000000000000000000000000000000000000815260040161134b90613077565b60405180910390fd5b5f73ffffffffffffffffffffffffffffffffffffffff16816007015f9054906101000a900473ffffffffffffffffffffffffffffffffffffffff1673ffffffffffffffffffffffffffffffffffffffff16146113e5576040517f08c379a00000000000000000000000000000000000000000000000000000000081526004016113dc906130df565b60405180910390fd5b6001816009015f6101000a81548160ff0219169083151502179055505f816001015f9054906101000a900473ffffffffffffffffffffffffffffffffffffffff1690508073ffffffffffffffffffffffffffffffffffffffff166323b872dd30845f015f9054906101000a900473ffffffffffffffffffffffffffffffffffffffff1685600201546040518463ffffffff1660e01b815260040161148b93929190612b8b565b5f604051808303815f87803b1580156114a2575f5ffd5b505af11580156114b4573d5f5f3e3d5ffd5b50505050505050565b5f5f60cb5f9054906101000a900473ffffffffffffffffffffffffffffffffffffffff1673ffffffffffffffffffffffffffffffffffffffff1663feaf968c6040518163ffffffff1660e01b815260040160a060405180830381865afa158015611529573d5f5f3e3d5ffd5b505050506040513d601f19601f8201168201806040525081019061154d919061317a565b5050509150508091505090565b5f5f60019054906101000a900460ff1615905080801561158a575060015f5f9054906101000a900460ff1660ff16105b806115b757506115993061206e565b1580156115b6575060015f5f9054906101000a900460ff1660ff16145b5b6115f6576040517f08c379a00000000000000000000000000000000000000000000000000000000081526004016115ed90613261565b60405180910390fd5b60015f5f6101000a81548160ff021916908360ff16021790555080156116315760015f60016101000a81548160ff0219169083151502179055505b611639612090565b6116416120e8565b600160ca819055508160cb5f6101000a81548173ffffffffffffffffffffffffffffffffffffffff021916908373ffffffffffffffffffffffffffffffffffffffff16021790555080156116e1575f5f60016101000a81548160ff0219169083151502179055507f7f26b83ff96e1f2b6a682f133852f6798a09c465da95921460cefb384740249860016040516116d891906132cd565b60405180910390a15b5050565b5f5f60c95f8481526020019081526020015f20604051806101400160405290815f82015f9054906101000a900473ffffffffffffffffffffffffffffffffffffffff1673ffffffffffffffffffffffffffffffffffffffff1673ffffffffffffffffffffffffffffffffffffffff168152602001600182015f9054906101000a900473ffffffffffffffffffffffffffffffffffffffff1673ffffffffffffffffffffffffffffffffffffffff1673ffffffffffffffffffffffffffffffffffffffff1681526020016002820154815260200160038201548152602001600482015481526020016005820154815260200160068201548152602001600782015f9054906101000a900473ffffffffffffffffffffffffffffffffffffffff1673ffffffffffffffffffffffffffffffffffffffff1673ffffffffffffffffffffffffffffffffffffffff16815260200160088201548152602001600982015f9054906101000a900460ff16151515158152505090505f8160a00151116118a0576040517f08c379a000000000000000000000000000000000000000000000000000000000815260040161189790613330565b60405180910390fd5b8060c001518160a001516118b49190612af0565b42106118c7578060800151915050611926565b5f8160a00151426118d8919061334e565b90505f826080015183606001516118ef919061334e565b90505f8360c00151838361190391906129ea565b61190d9190612a58565b905080846060015161191f919061334e565b9450505050505b919050565b5f60c95f8381526020019081526020015f2090505f816005015411611985576040517f08c379a000000000000000000000000000000000000000000000000000000000815260040161197c90613330565b60405180910390fd5b806009015f9054906101000a900460ff16156119d6576040517f08c379a00000000000000000000000000000000000000000000000000000000081526004016119cd90612ad2565b60405180910390fd5b806006015481600501546119ea9190612af0565b4210611a2b576040517f08c379a0000000000000000000000000000000000000000000000000000000008152600401611a2290612ad2565b60405180910390fd5b5f611a35836116e5565b905080341015611a7a576040517f08c379a0000000000000000000000000000000000000000000000000000000008152600401611a71906133cb565b60405180910390fd5b6001826009015f6101000a81548160ff02191690831515021790555033826007015f6101000a81548173ffffffffffffffffffffffffffffffffffffffff021916908373ffffffffffffffffffffffffffffffffffffffff1602179055508082600801819055505f826001015f9054906101000a900473ffffffffffffffffffffffffffffffffffffffff1690508073ffffffffffffffffffffffffffffffffffffffff166323b872dd303386600201546040518463ffffffff1660e01b8152600401611b4993929190612b8b565b5f604051808303815f87803b158015611b60575f5ffd5b505af1158015611b72573d5f5f3e3d5ffd5b505050505f8234611b83919061334e565b90505f811115611bd2573373ffffffffffffffffffffffffffffffffffffffff166108fc8290811502906040515f60405180830381858888f19350505050158015611bd0573d5f5f3e3d5ffd5b505b835f015f9054906101000a900473ffffffffffffffffffffffffffffffffffffffff1673ffffffffffffffffffffffffffffffffffffffff166108fc8490811502906040515f60405180830381858888f19350505050158015611c37573d5f5f3e3d5ffd5b503373ffffffffffffffffffffffffffffffffffffffff16857f0e54eff26401bf69b81b26f60bd85ef47f5d85275c1d268d84f68d6897431c4785604051611c7f91906124d1565b60405180910390a33373ffffffffffffffffffffffffffffffffffffffff16857fd2aa34a4fdbbc6dff6a3e56f46e0f3ae2a31d7785ff3487aa5c95c642acea50185604051611cce91906124d1565b60405180910390a35050505050565b60ca5481565b611ceb611f2d565b5f73ffffffffffffffffffffffffffffffffffffffff168173ffffffffffffffffffffffffffffffffffffffff1603611d59576040517f08c379a0000000000000000000000000000000000000000000000000000000008152600401611d5090613459565b60405180910390fd5b611d6281611fab565b50565b5f611d917f360894a13ba1a3210667c828492db98dca3e2076cc3735a920a3ca505d382bbc5f1b612138565b5f015f9054906101000a900473ffffffffffffffffffffffffffffffffffffffff16905090565b611dc0611f2d565b50565b611dee7f4910fdfa16fed3260ed0e7147f7cc6da11a60208b5b9406d12a635614ffd91435f1b612141565b5f015f9054906101000a900460ff1615611e1057611e0b8361214a565b611f28565b8273ffffffffffffffffffffffffffffffffffffffff166352d1902d6040518163ffffffff1660e01b8152600401602060405180830381865afa925050508015611e7857506040513d601f19601f82011682018060405250810190611e7591906134a1565b60015b611eb7576040517f08c379a0000000000000000000000000000000000000000000000000000000008152600401611eae9061353c565b60405180910390fd5b7f360894a13ba1a3210667c828492db98dca3e2076cc3735a920a3ca505d382bbc5f1b8114611f1b576040517f08c379a0000000000000000000000000000000000000000000000000000000008152600401611f12906135ca565b60405180910390fd5b50611f27838383612200565b5b505050565b611f3561222b565b73ffffffffffffffffffffffffffffffffffffffff16611f53610e01565b73ffffffffffffffffffffffffffffffffffffffff1614611fa9576040517f08c379a0000000000000000000000000000000000000000000000000000000008152600401611fa090613632565b60405180910390fd5b565b5f60975f9054906101000a900473ffffffffffffffffffffffffffffffffffffffff1690508160975f6101000a81548173ffffffffffffffffffffffffffffffffffffffff021916908373ffffffffffffffffffffffffffffffffffffffff1602179055508173ffffffffffffffffffffffffffffffffffffffff168173ffffffffffffffffffffffffffffffffffffffff167f8be0079c531659141344cd1fd0a4f28419497f9722a3daafe3b4186f6b6457e060405160405180910390a35050565b5f5f8273ffffffffffffffffffffffffffffffffffffffff163b119050919050565b5f60019054906101000a900460ff166120de576040517f08c379a00000000000000000000000000000000000000000000000000000000081526004016120d5906136c0565b60405180910390fd5b6120e6612232565b565b5f60019054906101000a900460ff16612136576040517f08c379a000000000000000000000000000000000000000000000000000000000815260040161212d906136c0565b60405180910390fd5b565b5f819050919050565b5f819050919050565b6121538161206e565b612192576040517f08c379a00000000000000000000000000000000000000000000000000000000081526004016121899061374e565b60405180910390fd5b806121be7f360894a13ba1a3210667c828492db98dca3e2076cc3735a920a3ca505d382bbc5f1b612138565b5f015f6101000a81548173ffffffffffffffffffffffffffffffffffffffff021916908373ffffffffffffffffffffffffffffffffffffffff16021790555050565b61220983612292565b5f825111806122155750805b156122265761222483836122e1565b505b505050565b5f33905090565b5f60019054906101000a900460ff16612280576040517f08c379a0000000000000000000000000000000000000000000000000000000008152600401612277906136c0565b60405180910390fd5b61229061228b61222b565b611fab565b565b61229b8161214a565b8073ffffffffffffffffffffffffffffffffffffffff167fbc7cd75a20ee27fd9adebab32041f755214dbc6bffa90cc0225b39da2e5c2d3b60405160405180910390a250565b6060612306838360405180606001604052806027815260200161389f6027913961230e565b905092915050565b60605f5f8573ffffffffffffffffffffffffffffffffffffffff168560405161233791906137be565b5f60405180830381855af49150503d805f811461236f576040519150601f19603f3d011682016040523d82523d5f602084013e612374565b606091505b509150915061238586838387612390565b925050509392505050565b606083156123f1575f8351036123e9576123a98561206e565b6123e8576040517f08c379a00000000000000000000000000000000000000000000000000000000081526004016123df9061381e565b60405180910390fd5b5b8290506123fc565b6123fb8383612404565b5b949350505050565b5f825111156124165781518083602001fd5b806040517f08c379a000000000000000000000000000000000000000000000000000000000815260040161244a919061387e565b60405180910390fd5b5f604051905090565b5f5ffd5b5f5ffd5b5f819050919050565b61247681612464565b8114612480575f5ffd5b50565b5f813590506124918161246d565b92915050565b5f602082840312156124ac576124ab61245c565b5b5f6124b984828501612483565b91505092915050565b6124cb81612464565b82525050565b5f6020820190506124e45f8301846124c2565b92915050565b5f73ffffffffffffffffffffffffffffffffffffffff82169050919050565b5f612513826124ea565b9050919050565b61252381612509565b811461252d575f5ffd5b50565b5f8135905061253e8161251a565b92915050565b5f602082840312156125595761255861245c565b5b5f61256684828501612530565b91505092915050565b5f5ffd5b5f5ffd5b5f601f19601f8301169050919050565b7f4e487b71000000000000000000000000000000000000000000000000000000005f52604160045260245ffd5b6125bd82612577565b810181811067ffffffffffffffff821117156125dc576125db612587565b5b80604052505050565b5f6125ee612453565b90506125fa82826125b4565b919050565b5f67ffffffffffffffff82111561261957612618612587565b5b61262282612577565b9050602081019050919050565b828183375f83830152505050565b5f61264f61264a846125ff565b6125e5565b90508281526020810184848401111561266b5761266a612573565b5b61267684828561262f565b509392505050565b5f82601f8301126126925761269161256f565b5b81356126a284826020860161263d565b91505092915050565b5f5f604083850312156126c1576126c061245c565b5b5f6126ce85828601612530565b925050602083013567ffffffffffffffff8111156126ef576126ee612460565b5b6126fb8582860161267e565b9150509250929050565b5f819050919050565b61271781612705565b82525050565b5f6020820190506127305f83018461270e565b92915050565b61273f81612509565b82525050565b5f8115159050919050565b61275981612745565b82525050565b5f610140820190506127735f83018d612736565b612780602083018c612736565b61278d604083018b6124c2565b61279a606083018a6124c2565b6127a760808301896124c2565b6127b460a08301886124c2565b6127c160c08301876124c2565b6127ce60e0830186612736565b6127dc6101008301856124c2565b6127ea610120830184612750565b9b9a5050505050505050505050565b5f6101208201905061280d5f83018c612736565b61281a602083018b612736565b612827604083018a6124c2565b61283460608301896124c2565b61284160808301886124c2565b61284e60a08301876124c2565b61285b60c08301866124c2565b61286860e0830185612736565b612876610100830184612750565b9a9950505050505050505050565b5f6020820190506128975f830184612736565b92915050565b5f5f5f5f5f60a086880312156128b6576128b561245c565b5b5f6128c388828901612530565b95505060206128d488828901612483565b94505060406128e588828901612483565b93505060606128f688828901612483565b925050608061290788828901612483565b9150509295509295909350565b5f819050919050565b61292681612914565b82525050565b5f60208201905061293f5f83018461291d565b92915050565b5f82825260208201905092915050565b7f496e76616c6964204554482070726963650000000000000000000000000000005f82015250565b5f612989601183612945565b915061299482612955565b602082019050919050565b5f6020820190508181035f8301526129b68161297d565b9050919050565b7f4e487b71000000000000000000000000000000000000000000000000000000005f52601160045260245ffd5b5f6129f482612464565b91506129ff83612464565b9250828202612a0d81612464565b91508282048414831517612a2457612a236129bd565b5b5092915050565b7f4e487b71000000000000000000000000000000000000000000000000000000005f52601260045260245ffd5b5f612a6282612464565b9150612a6d83612464565b925082612a7d57612a7c612a2b565b5b828204905092915050565b7f41756374696f6e20656e646564000000000000000000000000000000000000005f82015250565b5f612abc600d83612945565b9150612ac782612a88565b602082019050919050565b5f6020820190508181035f830152612ae981612ab0565b9050919050565b5f612afa82612464565b9150612b0583612464565b9250828201905080821115612b1d57612b1c6129bd565b5b92915050565b7f41756374696f6e206e6f7420656e6465640000000000000000000000000000005f82015250565b5f612b57601183612945565b9150612b6282612b23565b602082019050919050565b5f6020820190508181035f830152612b8481612b4b565b9050919050565b5f606082019050612b9e5f830186612736565b612bab6020830185612736565b612bb860408301846124c2565b949350505050565b7f46756e6374696f6e206d7573742062652063616c6c6564207468726f756768205f8201527f64656c656761746563616c6c0000000000000000000000000000000000000000602082015250565b5f612c1a602c83612945565b9150612c2582612bc0565b604082019050919050565b5f6020820190508181035f830152612c4781612c0e565b9050919050565b7f46756e6374696f6e206d7573742062652063616c6c6564207468726f756768205f8201527f6163746976652070726f78790000000000000000000000000000000000000000602082015250565b5f612ca8602c83612945565b9150612cb382612c4e565b604082019050919050565b5f6020820190508181035f830152612cd581612c9c565b9050919050565b7f555550535570677261646561626c653a206d757374206e6f742062652063616c5f8201527f6c6564207468726f7567682064656c656761746563616c6c0000000000000000602082015250565b5f612d36603883612945565b9150612d4182612cdc565b604082019050919050565b5f6020820190508181035f830152612d6381612d2a565b9050919050565b7f5374617274207072696365206d7573742062652067726561746572207468616e5f8201527f20656e6420707269636500000000000000000000000000000000000000000000602082015250565b5f612dc4602a83612945565b9150612dcf82612d6a565b604082019050919050565b5f6020820190508181035f830152612df181612db8565b9050919050565b7f4475726174696f6e206d757374203e20300000000000000000000000000000005f82015250565b5f612e2c601183612945565b9150612e3782612df8565b602082019050919050565b5f6020820190508181035f830152612e5981612e20565b9050919050565b5f81519050612e6e8161251a565b92915050565b5f60208284031215612e8957612e8861245c565b5b5f612e9684828501612e60565b91505092915050565b7f596f7520617265206e6f7420746865206f776e6572206f662074686973204e465f8201527f5400000000000000000000000000000000000000000000000000000000000000602082015250565b5f612ef9602183612945565b9150612f0482612e9f565b604082019050919050565b5f6020820190508181035f830152612f2681612eed565b9050919050565b5f612f3782612464565b91507fffffffffffffffffffffffffffffffffffffffffffffffffffffffffffffffff8203612f6957612f686129bd565b5b600182019050919050565b5f60a082019050612f875f8301886124c2565b612f9460208301876124c2565b612fa160408301866124c2565b612fae60608301856124c2565b612fbb60808301846124c2565b9695505050505050565b7f4e6f742053656c6c6572000000000000000000000000000000000000000000005f82015250565b5f612ff9600a83612945565b915061300482612fc5565b602082019050919050565b5f6020820190508181035f83015261302681612fed565b9050919050565b7f416c726561647920656e646564000000000000000000000000000000000000005f82015250565b5f613061600d83612945565b915061306c8261302d565b602082019050919050565b5f6020820190508181035f83015261308e81613055565b9050919050565b7f416c726561647920626f756768740000000000000000000000000000000000005f82015250565b5f6130c9600e83612945565b91506130d482613095565b602082019050919050565b5f6020820190508181035f8301526130f6816130bd565b9050919050565b5f69ffffffffffffffffffff82169050919050565b61311b816130fd565b8114613125575f5ffd5b50565b5f8151905061313681613112565b92915050565b61314581612914565b811461314f575f5ffd5b50565b5f815190506131608161313c565b92915050565b5f815190506131748161246d565b92915050565b5f5f5f5f5f60a086880312156131935761319261245c565b5b5f6131a088828901613128565b95505060206131b188828901613152565b94505060406131c288828901613166565b93505060606131d388828901613166565b92505060806131e488828901613128565b9150509295509295909350565b7f496e697469616c697a61626c653a20636f6e747261637420697320616c7265615f8201527f647920696e697469616c697a6564000000000000000000000000000000000000602082015250565b5f61324b602e83612945565b9150613256826131f1565b604082019050919050565b5f6020820190508181035f8301526132788161323f565b9050919050565b5f819050919050565b5f60ff82169050919050565b5f819050919050565b5f6132b76132b26132ad8461327f565b613294565b613288565b9050919050565b6132c78161329d565b82525050565b5f6020820190506132e05f8301846132be565b92915050565b7f41756374696f6e206e6f742065786973747300000000000000000000000000005f82015250565b5f61331a601283612945565b9150613325826132e6565b602082019050919050565b5f6020820190508181035f8301526133478161330e565b9050919050565b5f61335882612464565b915061336383612464565b925082820390508181111561337b5761337a6129bd565b5b92915050565b7f496e73756666696369656e7420626964000000000000000000000000000000005f82015250565b5f6133b5601083612945565b91506133c082613381565b602082019050919050565b5f6020820190508181035f8301526133e2816133a9565b9050919050565b7f4f776e61626c653a206e6577206f776e657220697320746865207a65726f20615f8201527f6464726573730000000000000000000000000000000000000000000000000000602082015250565b5f613443602683612945565b915061344e826133e9565b604082019050919050565b5f6020820190508181035f83015261347081613437565b9050919050565b61348081612705565b811461348a575f5ffd5b50565b5f8151905061349b81613477565b92915050565b5f602082840312156134b6576134b561245c565b5b5f6134c38482850161348d565b91505092915050565b7f45524331393637557067726164653a206e657720696d706c656d656e746174695f8201527f6f6e206973206e6f742055555053000000000000000000000000000000000000602082015250565b5f613526602e83612945565b9150613531826134cc565b604082019050919050565b5f6020820190508181035f8301526135538161351a565b9050919050565b7f45524331393637557067726164653a20756e737570706f727465642070726f785f8201527f6961626c65555549440000000000000000000000000000000000000000000000602082015250565b5f6135b4602983612945565b91506135bf8261355a565b604082019050919050565b5f6020820190508181035f8301526135e1816135a8565b9050919050565b7f4f776e61626c653a2063616c6c6572206973206e6f7420746865206f776e65725f82015250565b5f61361c602083612945565b9150613627826135e8565b602082019050919050565b5f6020820190508181035f83015261364981613610565b9050919050565b7f496e697469616c697a61626c653a20636f6e7472616374206973206e6f7420695f8201527f6e697469616c697a696e67000000000000000000000000000000000000000000602082015250565b5f6136aa602b83612945565b91506136b582613650565b604082019050919050565b5f6020820190508181035f8301526136d78161369e565b9050919050565b7f455243313936373a206e657720696d706c656d656e746174696f6e206973206e5f8201527f6f74206120636f6e747261637400000000000000000000000000000000000000602082015250565b5f613738602d83612945565b9150613743826136de565b604082019050919050565b5f6020820190508181035f8301526137658161372c565b9050919050565b5f81519050919050565b5f81905092915050565b8281835e5f83830152505050565b5f6137988261376c565b6137a28185613776565b93506137b2818560208601613780565b80840191505092915050565b5f6137c9828461378e565b915081905092915050565b7f416464726573733a2063616c6c20746f206e6f6e2d636f6e74726163740000005f82015250565b5f613808601d83612945565b9150613813826137d4565b602082019050919050565b5f6020820190508181035f830152613835816137fc565b9050919050565b5f81519050919050565b5f6138508261383c565b61385a8185612945565b935061386a818560208601613780565b61387381612577565b840191505092915050565b5f6020820190508181035f8301526138968184613846565b90509291505056fe416464726573733a206c6f772d6c6576656c2064656c65676174652063616c6c206661696c6564a264697066735822122005e504be0a157c0e97b90cd50cb4ca6e484c409cf2e8d99a2ebd29771fb7b35964736f6c634300081c0033","linkReferences":{}},"methodIdentifiers":{"auctionIdCounter()":"de0794ef","auctions(uint256)":"571a26a0","buy(uint256)":"d96a094a","cancelAuction(uint256)":"96b5a755","createAuction(address,uint256,uint256,uint256,uint256)":"961c9ae4","ethToUSD(uint256)":"196e609d","getAuction(uint256)":"78bd7935","getCurrentPrice(uint256)":"c55d0f56","getCurrentPriceUSD(uint256)":"7d9f9dc7","getETHPrice()":"a607a8d9","initialize(address)":"c4d66de8","owner()":"8da5cb5b","proxiableUUID()":"52d1902d","renounceOwnership()":"715018a6","settleAuction(uint256)":"2e993611","transferOwnership(address)":"f2fde38b","upgradeTo(address)":"3659cfe6","upgradeToAndCall(address,bytes)":"4f1ef286"},"id":4}